{
  "_format": "hh-sol-artifact-1",
  "contractName": "BatchRelayerLibrary",
  "sourceName": "contracts/BatchRelayerLibrary.sol",
  "abi": [
    {
      "inputs": [
        {
          "internalType": "contract IVault",
          "name": "vault",
          "type": "address"
        },
        {
          "internalType": "contract IERC20",
          "name": "wstETH",
          "type": "address"
        },
        {
          "internalType": "contract IBalancerMinter",
          "name": "minter",
          "type": "address"
        },
        {
          "internalType": "bool",
          "name": "canCallUserCheckpoint",
          "type": "bool"
        },
        {
          "internalType": "string",
          "name": "version",
          "type": "string"
        }
      ],
      "stateMutability": "nonpayable",
      "type": "constructor"
    },
    {
      "inputs": [
        {
          "internalType": "contract IERC20",
          "name": "token",
          "type": "address"
        },
        {
          "internalType": "uint256",
          "name": "amount",
          "type": "uint256"
        }
      ],
      "name": "approveVault",
      "outputs": [],
      "stateMutability": "payable",
      "type": "function"
    },
    {
      "inputs": [
        {
          "internalType": "enum IVault.SwapKind",
          "name": "kind",
          "type": "uint8"
        },
        {
          "components": [
            {
              "internalType": "bytes32",
              "name": "poolId",
              "type": "bytes32"
            },
            {
              "internalType": "uint256",
              "name": "assetInIndex",
              "type": "uint256"
            },
            {
              "internalType": "uint256",
              "name": "assetOutIndex",
              "type": "uint256"
            },
            {
              "internalType": "uint256",
              "name": "amount",
              "type": "uint256"
            },
            {
              "internalType": "bytes",
              "name": "userData",
              "type": "bytes"
            }
          ],
          "internalType": "struct IVault.BatchSwapStep[]",
          "name": "swaps",
          "type": "tuple[]"
        },
        {
          "internalType": "contract IAsset[]",
          "name": "assets",
          "type": "address[]"
        },
        {
          "components": [
            {
              "internalType": "address",
              "name": "sender",
              "type": "address"
            },
            {
              "internalType": "bool",
              "name": "fromInternalBalance",
              "type": "bool"
            },
            {
              "internalType": "address payable",
              "name": "recipient",
              "type": "address"
            },
            {
              "internalType": "bool",
              "name": "toInternalBalance",
              "type": "bool"
            }
          ],
          "internalType": "struct IVault.FundManagement",
          "name": "funds",
          "type": "tuple"
        },
        {
          "internalType": "int256[]",
          "name": "limits",
          "type": "int256[]"
        },
        {
          "internalType": "uint256",
          "name": "deadline",
          "type": "uint256"
        },
        {
          "internalType": "uint256",
          "name": "value",
          "type": "uint256"
        },
        {
          "components": [
            {
              "internalType": "uint256",
              "name": "index",
              "type": "uint256"
            },
            {
              "internalType": "uint256",
              "name": "key",
              "type": "uint256"
            }
          ],
          "internalType": "struct VaultActions.OutputReference[]",
          "name": "outputReferences",
          "type": "tuple[]"
        }
      ],
      "name": "batchSwap",
      "outputs": [],
      "stateMutability": "payable",
      "type": "function"
    },
    {
      "inputs": [],
      "name": "canCallUserCheckpoint",
      "outputs": [
        {
          "internalType": "bool",
          "name": "",
          "type": "bool"
        }
      ],
      "stateMutability": "view",
      "type": "function"
    },
    {
      "inputs": [
        {
          "internalType": "bytes32",
          "name": "poolId",
          "type": "bytes32"
        },
        {
          "internalType": "enum VaultActions.PoolKind",
          "name": "kind",
          "type": "uint8"
        },
        {
          "internalType": "address",
          "name": "sender",
          "type": "address"
        },
        {
          "internalType": "address payable",
          "name": "recipient",
          "type": "address"
        },
        {
          "components": [
            {
              "internalType": "contract IAsset[]",
              "name": "assets",
              "type": "address[]"
            },
            {
              "internalType": "uint256[]",
              "name": "minAmountsOut",
              "type": "uint256[]"
            },
            {
              "internalType": "bytes",
              "name": "userData",
              "type": "bytes"
            },
            {
              "internalType": "bool",
              "name": "toInternalBalance",
              "type": "bool"
            }
          ],
          "internalType": "struct IVault.ExitPoolRequest",
          "name": "request",
          "type": "tuple"
        },
        {
          "components": [
            {
              "internalType": "uint256",
              "name": "index",
              "type": "uint256"
            },
            {
              "internalType": "uint256",
              "name": "key",
              "type": "uint256"
            }
          ],
          "internalType": "struct VaultActions.OutputReference[]",
          "name": "outputReferences",
          "type": "tuple[]"
        }
      ],
      "name": "exitPool",
      "outputs": [],
      "stateMutability": "payable",
      "type": "function"
    },
    {
      "inputs": [
        {
          "internalType": "address",
          "name": "user",
          "type": "address"
        },
        {
          "internalType": "contract IStakingLiquidityGauge[]",
          "name": "gauges",
          "type": "address[]"
        }
      ],
      "name": "gaugeCheckpoint",
      "outputs": [],
      "stateMutability": "payable",
      "type": "function"
    },
    {
      "inputs": [
        {
          "internalType": "contract IStakingLiquidityGauge[]",
          "name": "gauges",
          "type": "address[]"
        }
      ],
      "name": "gaugeClaimRewards",
      "outputs": [],
      "stateMutability": "payable",
      "type": "function"
    },
    {
      "inputs": [
        {
          "internalType": "contract IStakingLiquidityGauge",
          "name": "gauge",
          "type": "address"
        },
        {
          "internalType": "address",
          "name": "sender",
          "type": "address"
        },
        {
          "internalType": "address",
          "name": "recipient",
          "type": "address"
        },
        {
          "internalType": "uint256",
          "name": "amount",
          "type": "uint256"
        }
      ],
      "name": "gaugeDeposit",
      "outputs": [],
      "stateMutability": "payable",
      "type": "function"
    },
    {
      "inputs": [
        {
          "internalType": "address[]",
          "name": "gauges",
          "type": "address[]"
        },
        {
          "internalType": "uint256",
          "name": "outputReference",
          "type": "uint256"
        }
      ],
      "name": "gaugeMint",
      "outputs": [],
      "stateMutability": "payable",
      "type": "function"
    },
    {
      "inputs": [
        {
          "internalType": "bool",
          "name": "approval",
          "type": "bool"
        },
        {
          "internalType": "address",
          "name": "user",
          "type": "address"
        },
        {
          "internalType": "uint256",
          "name": "deadline",
          "type": "uint256"
        },
        {
          "internalType": "uint8",
          "name": "v",
          "type": "uint8"
        },
        {
          "internalType": "bytes32",
          "name": "r",
          "type": "bytes32"
        },
        {
          "internalType": "bytes32",
          "name": "s",
          "type": "bytes32"
        }
      ],
      "name": "gaugeSetMinterApproval",
      "outputs": [],
      "stateMutability": "payable",
      "type": "function"
    },
    {
      "inputs": [
        {
          "internalType": "contract IStakingLiquidityGauge",
          "name": "gauge",
          "type": "address"
        },
        {
          "internalType": "address",
          "name": "sender",
          "type": "address"
        },
        {
          "internalType": "address",
          "name": "recipient",
          "type": "address"
        },
        {
          "internalType": "uint256",
          "name": "amount",
          "type": "uint256"
        }
      ],
      "name": "gaugeWithdraw",
      "outputs": [],
      "stateMutability": "payable",
      "type": "function"
    },
    {
      "inputs": [],
      "name": "getEntrypoint",
      "outputs": [
        {
          "internalType": "contract IBalancerRelayer",
          "name": "",
          "type": "address"
        }
      ],
      "stateMutability": "view",
      "type": "function"
    },
    {
      "inputs": [],
      "name": "getVault",
      "outputs": [
        {
          "internalType": "contract IVault",
          "name": "",
          "type": "address"
        }
      ],
      "stateMutability": "view",
      "type": "function"
    },
    {
      "inputs": [
        {
          "internalType": "bytes32",
          "name": "poolId",
          "type": "bytes32"
        },
        {
          "internalType": "enum VaultActions.PoolKind",
          "name": "kind",
          "type": "uint8"
        },
        {
          "internalType": "address",
          "name": "sender",
          "type": "address"
        },
        {
          "internalType": "address",
          "name": "recipient",
          "type": "address"
        },
        {
          "components": [
            {
              "internalType": "contract IAsset[]",
              "name": "assets",
              "type": "address[]"
            },
            {
              "internalType": "uint256[]",
              "name": "maxAmountsIn",
              "type": "uint256[]"
            },
            {
              "internalType": "bytes",
              "name": "userData",
              "type": "bytes"
            },
            {
              "internalType": "bool",
              "name": "fromInternalBalance",
              "type": "bool"
            }
          ],
          "internalType": "struct IVault.JoinPoolRequest",
          "name": "request",
          "type": "tuple"
        },
        {
          "internalType": "uint256",
          "name": "value",
          "type": "uint256"
        },
        {
          "internalType": "uint256",
          "name": "outputReference",
          "type": "uint256"
        }
      ],
      "name": "joinPool",
      "outputs": [],
      "stateMutability": "payable",
      "type": "function"
    },
    {
      "inputs": [
        {
          "components": [
            {
              "internalType": "enum IVault.UserBalanceOpKind",
              "name": "kind",
              "type": "uint8"
            },
            {
              "internalType": "contract IAsset",
              "name": "asset",
              "type": "address"
            },
            {
              "internalType": "uint256",
              "name": "amount",
              "type": "uint256"
            },
            {
              "internalType": "address",
              "name": "sender",
              "type": "address"
            },
            {
              "internalType": "address payable",
              "name": "recipient",
              "type": "address"
            }
          ],
          "internalType": "struct IVault.UserBalanceOp[]",
          "name": "ops",
          "type": "tuple[]"
        },
        {
          "internalType": "uint256",
          "name": "value",
          "type": "uint256"
        },
        {
          "components": [
            {
              "internalType": "uint256",
              "name": "index",
              "type": "uint256"
            },
            {
              "internalType": "uint256",
              "name": "key",
              "type": "uint256"
            }
          ],
          "internalType": "struct VaultActions.OutputReference[]",
          "name": "outputReferences",
          "type": "tuple[]"
        }
      ],
      "name": "manageUserBalance",
      "outputs": [],
      "stateMutability": "payable",
      "type": "function"
    },
    {
      "inputs": [
        {
          "internalType": "uint256",
          "name": "ref",
          "type": "uint256"
        }
      ],
      "name": "peekChainedReferenceValue",
      "outputs": [
        {
          "internalType": "uint256",
          "name": "value",
          "type": "uint256"
        }
      ],
      "stateMutability": "payable",
      "type": "function"
    },
    {
      "inputs": [
        {
          "internalType": "address",
          "name": "relayer",
          "type": "address"
        },
        {
          "internalType": "bool",
          "name": "approved",
          "type": "bool"
        },
        {
          "internalType": "bytes",
          "name": "authorisation",
          "type": "bytes"
        }
      ],
      "name": "setRelayerApproval",
      "outputs": [],
      "stateMutability": "payable",
      "type": "function"
    },
    {
      "inputs": [
        {
          "internalType": "address",
          "name": "recipient",
          "type": "address"
        },
        {
          "internalType": "uint256",
          "name": "amount",
          "type": "uint256"
        },
        {
          "internalType": "uint256",
          "name": "outputReference",
          "type": "uint256"
        }
      ],
      "name": "stakeETH",
      "outputs": [],
      "stateMutability": "payable",
      "type": "function"
    },
    {
      "inputs": [
        {
          "internalType": "address",
          "name": "recipient",
          "type": "address"
        },
        {
          "internalType": "uint256",
          "name": "amount",
          "type": "uint256"
        },
        {
          "internalType": "uint256",
          "name": "outputReference",
          "type": "uint256"
        }
      ],
      "name": "stakeETHAndWrap",
      "outputs": [],
      "stateMutability": "payable",
      "type": "function"
    },
    {
      "inputs": [
        {
          "components": [
            {
              "internalType": "bytes32",
              "name": "poolId",
              "type": "bytes32"
            },
            {
              "internalType": "enum IVault.SwapKind",
              "name": "kind",
              "type": "uint8"
            },
            {
              "internalType": "contract IAsset",
              "name": "assetIn",
              "type": "address"
            },
            {
              "internalType": "contract IAsset",
              "name": "assetOut",
              "type": "address"
            },
            {
              "internalType": "uint256",
              "name": "amount",
              "type": "uint256"
            },
            {
              "internalType": "bytes",
              "name": "userData",
              "type": "bytes"
            }
          ],
          "internalType": "struct IVault.SingleSwap",
          "name": "singleSwap",
          "type": "tuple"
        },
        {
          "components": [
            {
              "internalType": "address",
              "name": "sender",
              "type": "address"
            },
            {
              "internalType": "bool",
              "name": "fromInternalBalance",
              "type": "bool"
            },
            {
              "internalType": "address payable",
              "name": "recipient",
              "type": "address"
            },
            {
              "internalType": "bool",
              "name": "toInternalBalance",
              "type": "bool"
            }
          ],
          "internalType": "struct IVault.FundManagement",
          "name": "funds",
          "type": "tuple"
        },
        {
          "internalType": "uint256",
          "name": "limit",
          "type": "uint256"
        },
        {
          "internalType": "uint256",
          "name": "deadline",
          "type": "uint256"
        },
        {
          "internalType": "uint256",
          "name": "value",
          "type": "uint256"
        },
        {
          "internalType": "uint256",
          "name": "outputReference",
          "type": "uint256"
        }
      ],
      "name": "swap",
      "outputs": [],
      "stateMutability": "payable",
      "type": "function"
    },
    {
      "inputs": [
        {
          "internalType": "contract IStaticATokenLM",
          "name": "staticToken",
          "type": "address"
        },
        {
          "internalType": "address",
          "name": "sender",
          "type": "address"
        },
        {
          "internalType": "address",
          "name": "recipient",
          "type": "address"
        },
        {
          "internalType": "uint256",
          "name": "amount",
          "type": "uint256"
        },
        {
          "internalType": "bool",
          "name": "toUnderlying",
          "type": "bool"
        },
        {
          "internalType": "uint256",
          "name": "outputReference",
          "type": "uint256"
        }
      ],
      "name": "unwrapAaveStaticToken",
      "outputs": [],
      "stateMutability": "payable",
      "type": "function"
    },
    {
      "inputs": [
        {
          "internalType": "contract ICToken",
          "name": "wrappedToken",
          "type": "address"
        },
        {
          "internalType": "address",
          "name": "sender",
          "type": "address"
        },
        {
          "internalType": "address",
          "name": "recipient",
          "type": "address"
        },
        {
          "internalType": "uint256",
          "name": "amount",
          "type": "uint256"
        },
        {
          "internalType": "uint256",
          "name": "outputReference",
          "type": "uint256"
        }
      ],
      "name": "unwrapCompoundV2",
      "outputs": [],
      "stateMutability": "payable",
      "type": "function"
    },
    {
      "inputs": [
        {
          "internalType": "contract IERC4626",
          "name": "wrappedToken",
          "type": "address"
        },
        {
          "internalType": "address",
          "name": "sender",
          "type": "address"
        },
        {
          "internalType": "address",
          "name": "recipient",
          "type": "address"
        },
        {
          "internalType": "uint256",
          "name": "amount",
          "type": "uint256"
        },
        {
          "internalType": "uint256",
          "name": "outputReference",
          "type": "uint256"
        }
      ],
      "name": "unwrapERC4626",
      "outputs": [],
      "stateMutability": "payable",
      "type": "function"
    },
    {
      "inputs": [
        {
          "internalType": "contract IEulerToken",
          "name": "wrappedToken",
          "type": "address"
        },
        {
          "internalType": "address",
          "name": "sender",
          "type": "address"
        },
        {
          "internalType": "address",
          "name": "recipient",
          "type": "address"
        },
        {
          "internalType": "uint256",
          "name": "amount",
          "type": "uint256"
        },
        {
          "internalType": "uint256",
          "name": "outputReference",
          "type": "uint256"
        }
      ],
      "name": "unwrapEuler",
      "outputs": [],
      "stateMutability": "payable",
      "type": "function"
    },
    {
      "inputs": [
        {
          "internalType": "contract IGearboxDieselToken",
          "name": "wrappedToken",
          "type": "address"
        },
        {
          "internalType": "address",
          "name": "sender",
          "type": "address"
        },
        {
          "internalType": "address",
          "name": "recipient",
          "type": "address"
        },
        {
          "internalType": "uint256",
          "name": "dieselAmount",
          "type": "uint256"
        },
        {
          "internalType": "uint256",
          "name": "outputReference",
          "type": "uint256"
        }
      ],
      "name": "unwrapGearbox",
      "outputs": [],
      "stateMutability": "payable",
      "type": "function"
    },
    {
      "inputs": [
        {
          "internalType": "contract IReaperTokenVault",
          "name": "vaultToken",
          "type": "address"
        },
        {
          "internalType": "address",
          "name": "sender",
          "type": "address"
        },
        {
          "internalType": "address",
          "name": "recipient",
          "type": "address"
        },
        {
          "internalType": "uint256",
          "name": "amount",
          "type": "uint256"
        },
        {
          "internalType": "uint256",
          "name": "outputReference",
          "type": "uint256"
        }
      ],
      "name": "unwrapReaperVaultToken",
      "outputs": [],
      "stateMutability": "payable",
      "type": "function"
    },
    {
      "inputs": [
        {
          "internalType": "contract IShareToken",
          "name": "wrappedToken",
          "type": "address"
        },
        {
          "internalType": "address",
          "name": "sender",
          "type": "address"
        },
        {
          "internalType": "address",
          "name": "recipient",
          "type": "address"
        },
        {
          "internalType": "uint256",
          "name": "amount",
          "type": "uint256"
        },
        {
          "internalType": "uint256",
          "name": "outputReference",
          "type": "uint256"
        }
      ],
      "name": "unwrapShareToken",
      "outputs": [],
      "stateMutability": "payable",
      "type": "function"
    },
    {
      "inputs": [
        {
          "internalType": "contract ITetuSmartVault",
          "name": "wrappedToken",
          "type": "address"
        },
        {
          "internalType": "address",
          "name": "sender",
          "type": "address"
        },
        {
          "internalType": "address",
          "name": "recipient",
          "type": "address"
        },
        {
          "internalType": "uint256",
          "name": "amount",
          "type": "uint256"
        },
        {
          "internalType": "uint256",
          "name": "outputReference",
          "type": "uint256"
        }
      ],
      "name": "unwrapTetu",
      "outputs": [],
      "stateMutability": "payable",
      "type": "function"
    },
    {
      "inputs": [
        {
          "internalType": "contract IUnbuttonToken",
          "name": "wrapperToken",
          "type": "address"
        },
        {
          "internalType": "address",
          "name": "sender",
          "type": "address"
        },
        {
          "internalType": "address",
          "name": "recipient",
          "type": "address"
        },
        {
          "internalType": "uint256",
          "name": "amount",
          "type": "uint256"
        },
        {
          "internalType": "uint256",
          "name": "outputReference",
          "type": "uint256"
        }
      ],
      "name": "unwrapUnbuttonToken",
      "outputs": [],
      "stateMutability": "payable",
      "type": "function"
    },
    {
      "inputs": [
        {
          "internalType": "address",
          "name": "sender",
          "type": "address"
        },
        {
          "internalType": "address",
          "name": "recipient",
          "type": "address"
        },
        {
          "internalType": "uint256",
          "name": "amount",
          "type": "uint256"
        },
        {
          "internalType": "uint256",
          "name": "outputReference",
          "type": "uint256"
        }
      ],
      "name": "unwrapWstETH",
      "outputs": [],
      "stateMutability": "payable",
      "type": "function"
    },
    {
      "inputs": [
        {
          "internalType": "contract IYearnTokenVault",
          "name": "wrappedToken",
          "type": "address"
        },
        {
          "internalType": "address",
          "name": "sender",
          "type": "address"
        },
        {
          "internalType": "address",
          "name": "recipient",
          "type": "address"
        },
        {
          "internalType": "uint256",
          "name": "amount",
          "type": "uint256"
        },
        {
          "internalType": "uint256",
          "name": "outputReference",
          "type": "uint256"
        }
      ],
      "name": "unwrapYearn",
      "outputs": [],
      "stateMutability": "payable",
      "type": "function"
    },
    {
      "inputs": [
        {
          "internalType": "contract IERC20Permit",
          "name": "token",
          "type": "address"
        },
        {
          "internalType": "address",
          "name": "owner",
          "type": "address"
        },
        {
          "internalType": "uint256",
          "name": "value",
          "type": "uint256"
        },
        {
          "internalType": "uint256",
          "name": "deadline",
          "type": "uint256"
        },
        {
          "internalType": "uint8",
          "name": "v",
          "type": "uint8"
        },
        {
          "internalType": "bytes32",
          "name": "r",
          "type": "bytes32"
        },
        {
          "internalType": "bytes32",
          "name": "s",
          "type": "bytes32"
        }
      ],
      "name": "vaultPermit",
      "outputs": [],
      "stateMutability": "payable",
      "type": "function"
    },
    {
      "inputs": [
        {
          "internalType": "contract IERC20PermitDAI",
          "name": "token",
          "type": "address"
        },
        {
          "internalType": "address",
          "name": "holder",
          "type": "address"
        },
        {
          "internalType": "uint256",
          "name": "nonce",
          "type": "uint256"
        },
        {
          "internalType": "uint256",
          "name": "expiry",
          "type": "uint256"
        },
        {
          "internalType": "bool",
          "name": "allowed",
          "type": "bool"
        },
        {
          "internalType": "uint8",
          "name": "v",
          "type": "uint8"
        },
        {
          "internalType": "bytes32",
          "name": "r",
          "type": "bytes32"
        },
        {
          "internalType": "bytes32",
          "name": "s",
          "type": "bytes32"
        }
      ],
      "name": "vaultPermitDAI",
      "outputs": [],
      "stateMutability": "payable",
      "type": "function"
    },
    {
      "inputs": [
        {
          "internalType": "contract IStaticATokenLM",
          "name": "staticToken",
          "type": "address"
        },
        {
          "internalType": "address",
          "name": "sender",
          "type": "address"
        },
        {
          "internalType": "address",
          "name": "recipient",
          "type": "address"
        },
        {
          "internalType": "uint256",
          "name": "amount",
          "type": "uint256"
        },
        {
          "internalType": "bool",
          "name": "fromUnderlying",
          "type": "bool"
        },
        {
          "internalType": "uint256",
          "name": "outputReference",
          "type": "uint256"
        }
      ],
      "name": "wrapAaveDynamicToken",
      "outputs": [],
      "stateMutability": "payable",
      "type": "function"
    },
    {
      "inputs": [
        {
          "internalType": "contract ICToken",
          "name": "wrappedToken",
          "type": "address"
        },
        {
          "internalType": "address",
          "name": "sender",
          "type": "address"
        },
        {
          "internalType": "address",
          "name": "recipient",
          "type": "address"
        },
        {
          "internalType": "uint256",
          "name": "amount",
          "type": "uint256"
        },
        {
          "internalType": "uint256",
          "name": "outputReference",
          "type": "uint256"
        }
      ],
      "name": "wrapCompoundV2",
      "outputs": [],
      "stateMutability": "payable",
      "type": "function"
    },
    {
      "inputs": [
        {
          "internalType": "contract IERC4626",
          "name": "wrappedToken",
          "type": "address"
        },
        {
          "internalType": "address",
          "name": "sender",
          "type": "address"
        },
        {
          "internalType": "address",
          "name": "recipient",
          "type": "address"
        },
        {
          "internalType": "uint256",
          "name": "amount",
          "type": "uint256"
        },
        {
          "internalType": "uint256",
          "name": "outputReference",
          "type": "uint256"
        }
      ],
      "name": "wrapERC4626",
      "outputs": [],
      "stateMutability": "payable",
      "type": "function"
    },
    {
      "inputs": [
        {
          "internalType": "contract IEulerToken",
          "name": "wrappedToken",
          "type": "address"
        },
        {
          "internalType": "address",
          "name": "eulerProtocol",
          "type": "address"
        },
        {
          "internalType": "address",
          "name": "sender",
          "type": "address"
        },
        {
          "internalType": "address",
          "name": "recipient",
          "type": "address"
        },
        {
          "internalType": "uint256",
          "name": "amount",
          "type": "uint256"
        },
        {
          "internalType": "uint256",
          "name": "outputReference",
          "type": "uint256"
        }
      ],
      "name": "wrapEuler",
      "outputs": [],
      "stateMutability": "payable",
      "type": "function"
    },
    {
      "inputs": [
        {
          "internalType": "contract IGearboxDieselToken",
          "name": "wrappedToken",
          "type": "address"
        },
        {
          "internalType": "address",
          "name": "sender",
          "type": "address"
        },
        {
          "internalType": "address",
          "name": "recipient",
          "type": "address"
        },
        {
          "internalType": "uint256",
          "name": "mainAmount",
          "type": "uint256"
        },
        {
          "internalType": "uint256",
          "name": "outputReference",
          "type": "uint256"
        }
      ],
      "name": "wrapGearbox",
      "outputs": [],
      "stateMutability": "payable",
      "type": "function"
    },
    {
      "inputs": [
        {
          "internalType": "contract IReaperTokenVault",
          "name": "vaultToken",
          "type": "address"
        },
        {
          "internalType": "address",
          "name": "sender",
          "type": "address"
        },
        {
          "internalType": "address",
          "name": "recipient",
          "type": "address"
        },
        {
          "internalType": "uint256",
          "name": "amount",
          "type": "uint256"
        },
        {
          "internalType": "uint256",
          "name": "outputReference",
          "type": "uint256"
        }
      ],
      "name": "wrapReaperVaultToken",
      "outputs": [],
      "stateMutability": "payable",
      "type": "function"
    },
    {
      "inputs": [
        {
          "internalType": "contract IShareToken",
          "name": "wrappedToken",
          "type": "address"
        },
        {
          "internalType": "address",
          "name": "sender",
          "type": "address"
        },
        {
          "internalType": "address",
          "name": "recipient",
          "type": "address"
        },
        {
          "internalType": "uint256",
          "name": "amount",
          "type": "uint256"
        },
        {
          "internalType": "uint256",
          "name": "outputReference",
          "type": "uint256"
        }
      ],
      "name": "wrapShareToken",
      "outputs": [],
      "stateMutability": "payable",
      "type": "function"
    },
    {
      "inputs": [
        {
          "internalType": "address",
          "name": "sender",
          "type": "address"
        },
        {
          "internalType": "address",
          "name": "recipient",
          "type": "address"
        },
        {
          "internalType": "uint256",
          "name": "amount",
          "type": "uint256"
        },
        {
          "internalType": "uint256",
          "name": "outputReference",
          "type": "uint256"
        }
      ],
      "name": "wrapStETH",
      "outputs": [],
      "stateMutability": "payable",
      "type": "function"
    },
    {
      "inputs": [
        {
          "internalType": "contract ITetuSmartVault",
          "name": "wrappedToken",
          "type": "address"
        },
        {
          "internalType": "address",
          "name": "sender",
          "type": "address"
        },
        {
          "internalType": "address",
          "name": "recipient",
          "type": "address"
        },
        {
          "internalType": "uint256",
          "name": "amount",
          "type": "uint256"
        },
        {
          "internalType": "uint256",
          "name": "outputReference",
          "type": "uint256"
        }
      ],
      "name": "wrapTetu",
      "outputs": [],
      "stateMutability": "payable",
      "type": "function"
    },
    {
      "inputs": [
        {
          "internalType": "contract IUnbuttonToken",
          "name": "wrapperToken",
          "type": "address"
        },
        {
          "internalType": "address",
          "name": "sender",
          "type": "address"
        },
        {
          "internalType": "address",
          "name": "recipient",
          "type": "address"
        },
        {
          "internalType": "uint256",
          "name": "uAmount",
          "type": "uint256"
        },
        {
          "internalType": "uint256",
          "name": "outputReference",
          "type": "uint256"
        }
      ],
      "name": "wrapUnbuttonToken",
      "outputs": [],
      "stateMutability": "payable",
      "type": "function"
    },
    {
      "inputs": [
        {
          "internalType": "contract IYearnTokenVault",
          "name": "wrappedToken",
          "type": "address"
        },
        {
          "internalType": "address",
          "name": "sender",
          "type": "address"
        },
        {
          "internalType": "address",
          "name": "recipient",
          "type": "address"
        },
        {
          "internalType": "uint256",
          "name": "amount",
          "type": "uint256"
        },
        {
          "internalType": "uint256",
          "name": "outputReference",
          "type": "uint256"
        }
      ],
      "name": "wrapYearn",
      "outputs": [],
      "stateMutability": "payable",
      "type": "function"
    }
  ],
  "bytecode": "0x6101806040527fae1dc54057af8e8e5ce068cdd4383149c7efcb30e8fb95b592ee1594367fb50960e0523480156200003657600080fd5b5060405162006d0838038062006d0883398101604081905262000059916200021a565b8383838784816001600160a01b031663ad5c46486040518163ffffffff1660e01b815260040160206040518083038186803b1580156200009857600080fd5b505afa158015620000ad573d6000803e3d6000fd5b505050506040513d601f19601f82011682018060405250810190620000d3919062000318565b6001600160601b0319606091821b81166080529083901b1660a05260405182903090839062000102906200020c565b62000110939291906200033e565b604051809103906000f0801580156200012d573d6000803e3d6000fd5b506001600160601b0319606091821b811660c05294901b9093166101005250151560f81b61012052506001600160a01b0381166200016d576000620001e4565b806001600160a01b031663c1fe3e486040518163ffffffff1660e01b8152600401602060405180830381600087803b158015620001a957600080fd5b505af1158015620001be573d6000803e3d6000fd5b505050506040513d601f19601f82011682018060405250810190620001e4919062000318565b6001600160601b0319606091821b81166101405291901b166101605250620003d99350505050565b6109f6806200631283390190565b600080600080600060a0868803121562000232578081fd5b85516200023f81620003c0565b60208701519095506200025281620003c0565b60408701519094506200026581620003c0565b606087015190935080151581146200027b578182fd5b60808701519092506001600160401b038082111562000298578283fd5b818801915088601f830112620002ac578283fd5b815181811115620002bb578384fd5b604051601f8201601f191681016020018381118282101715620002dc578586fd5b6040528181528382016020018b1015620002f4578485fd5b620003078260208301602087016200038d565b809450505050509295509295909350565b6000602082840312156200032a578081fd5b81516200033781620003c0565b9392505050565b600060018060a01b038086168352808516602084015250606060408301528251806060840152620003778160808501602087016200038d565b601f01601f191691909101608001949350505050565b60005b83811015620003aa57818101518382015260200162000390565b83811115620003ba576000848401525b50505050565b6001600160a01b0381168114620003d657600080fd5b50565b60805160601c60a05160601c60c05160601c60e0516101005160601c6101205160f81c6101405160601c6101605160601c615e8a62000488600039806106f4528061079d52806107c85280610c455280610c715280610d1452806133055280613331525080610c245280610f2f5280610fd352806133d45250806107f1528061172e5250806112ed5280612577525080613d93525080612215525080612315528061266e525050615e8a6000f3fe6080604052600436106102dc5760003560e01c80637ab6e03c11610184578063959fc17a116100d6578063d80952d51161008a578063efe6910811610064578063efe6910814610604578063f3cab68514610617578063f4dd54b014610637576102dc565b8063d80952d5146105cb578063db4c0e91146105de578063e8210e3c146105f1576102dc565b8063b064b376116100bb578063b064b37614610592578063b6d24737146105a5578063d293f290146105b8576102dc565b8063959fc17a1461056c578063abf6d3991461057f576102dc565b80638b35ac8d116101385780638d928af8116101125780638d928af8146105315780638fe4624f14610546578063941e849b14610559576102dc565b80638b35ac8d146104f85780638c57198b1461050b5780638d64cfbc1461051e576102dc565b80637fd0e5d5116101695780637fd0e5d5146104b057806380db15bd146104d2578063837f9bcb146104e5576102dc565b80637ab6e03c1461048a5780637bc008f51461049d576102dc565b80633f85d3901161023d5780634f06a70b116101f1578063611b90dd116101cb578063611b90dd1461045157806365ca4804146104645780636d307ea814610477576102dc565b80634f06a70b146104185780635001fe751461042b57806352b887461461043e576102dc565b806344b6ac741161022257806344b6ac74146103df57806348699d58146103f25780634e9d9bab14610405576102dc565b80633f85d390146103b9578063433b0865146103cc576102dc565b80631c982441116102945780632cbec84e116102795780632cbec84e146103805780632e6272ea14610393578063311c5c57146103a6576102dc565b80631c9824411461035a5780632c25efe11461036d576102dc565b806310f3aaff116102c557806310f3aaff14610309578063138fdc2c146103345780631836944614610347576102dc565b80630e248fea146102e15780631089e5e3146102f6575b600080fd5b6102f46102ef366004614a74565b61064a565b005b6102f46103043660046149f6565b6106e5565b34801561031557600080fd5b5061031e6107ef565b60405161032b919061596b565b60405180910390f35b6102f4610342366004614e59565b610813565b6102f46103553660046151ec565b610a16565b6102f46103683660046148d1565b610c1f565b6102f461037b366004614e59565b610d42565b6102f461038e3660046149f6565b610f20565b6102f46103a13660046152e8565b610ffa565b6102f46103b4366004614e59565b61111a565b6102f46103c7366004614a2a565b6112ba565b6102f46103da36600461508a565b611384565b6102f46103ed366004614e59565b6115ad565b6102f4610400366004614916565b61172c565b6102f4610413366004614e59565b611772565b6102f4610426366004614e59565b6119cd565b6102f4610439366004614e59565b611ade565b6102f461044c366004614fcd565b611c69565b6102f461045f366004614e59565b611e0d565b6102f461047236600461503a565b611eb0565b6102f4610485366004614e59565b611fce565b6102f461049836600461508a565b612009565b6102f46104ab36600461503a565b61210f565b3480156104bc57600080fd5b506104c5612213565b60405161032b919061564e565b6102f46104e0366004614969565b612237565b6102f46104f3366004614b44565b61233b565b6102f4610506366004614e59565b61250b565b6102f4610519366004614cbd565b612547565b6102f461052c366004614f34565b6125f2565b34801561053d57600080fd5b506104c561266c565b6102f4610554366004614dc9565b612690565b6102f4610567366004614e59565b6128ba565b6102f461057a366004614eb3565b612a05565b6102f461058d366004614e59565b612a82565b6102f46105a0366004614e59565b612b35565b6102f46105b3366004614fa2565b612c78565b6102f46105c6366004614e59565b612cb2565b6102f46105d9366004614d20565b612d72565b6102f46105ec3660046148d1565b613300565b6102f46105ff366004614e59565b6133fb565b6102f4610612366004614e59565b613436565b61062a6106253660046153d6565b613475565b60405161032b9190615cfa565b6102f4610645366004614e59565b613487565b8060005b818110156106df5783838281811061066257fe5b90506020020160208101906106779190614899565b6001600160a01b03166384e9bd7e336040518263ffffffff1660e01b81526004016106a2919061564e565b600060405180830381600087803b1580156106bc57600080fd5b505af11580156106d0573d6000803e3d6000fd5b5050505080600101905061064e565b50505050565b6106ee826135b3565b915060007f00000000000000000000000000000000000000000000000000000000000000006001600160a01b031663b0e38900846040518263ffffffff1660e01b815260040161073e9190615cfa565b60206040518083038186803b15801561075657600080fd5b505afa15801561076a573d6000803e3d6000fd5b505050506040513d601f19601f8201168201806040525081019061078e91906153ee565b90506107c36001600160a01b037f000000000000000000000000000000000000000000000000000000000000000016846135d9565b6106df7f0000000000000000000000000000000000000000000000000000000000000000858385613653565b7f000000000000000000000000000000000000000000000000000000000000000090565b6000856001600160a01b0316638da5cb5b6040518163ffffffff1660e01b815260040160206040518083038186803b15801561084e57600080fd5b505afa158015610862573d6000803e3d6000fd5b505050506040513d601f19601f8201168201806040525081019061088691906148b5565b90506000816001600160a01b0316632495a5996040518163ffffffff1660e01b815260040160206040518083038186803b1580156108c357600080fd5b505afa1580156108d7573d6000803e3d6000fd5b505050506040513d601f19601f820116820180604052508101906108fb91906148b5565b905061090981838689613681565b6040517f9aa5d4620000000000000000000000000000000000000000000000000000000081529094506001600160a01b03831690639aa5d462906109569087908990600090600401615d39565b600060405180830381600087803b15801561097057600080fd5b505af1158015610984573d6000803e3d6000fd5b50505050610a0d83836001600160a01b0316634d778ad1876040518263ffffffff1660e01b81526004016109b89190615cfa565b60206040518083038186803b1580156109d057600080fd5b505afa1580156109e4573d6000803e3d6000fd5b505050506040513d601f19601f82011682018060405250810190610a0891906153ee565b6136ac565b50505050505050565b33610a246020890189614899565b6001600160a01b03161480610a4d575030610a426020890189614899565b6001600160a01b0316145b610a725760405162461bcd60e51b8152600401610a6990615b5c565b60405180910390fd5b60005b8a51811015610ad75760008b8281518110610a8c57fe5b6020026020010151606001519050610aa3816136c4565b15610ace57610ab18161370b565b8c8381518110610abd57fe5b602002602001015160600181815250505b50600101610a75565b506060610ae261266c565b6001600160a01b031663945bcec9858e8e8e8e8e8e8e8e6040518a63ffffffff1660e01b8152600401610b1c989796959493929190615a1c565b6000604051808303818588803b158015610b3557600080fd5b505af1158015610b49573d6000803e3d6000fd5b50505050506040513d6000823e601f3d908101601f19168201604052610b729190810190614ab4565b905060005b82811015610c1057610b9d848483818110610b8e57fe5b905060400201602001356136c4565b610bb95760405162461bcd60e51b8152600401610a6990615c38565b610c08848483818110610bc857fe5b90506040020160200135610c0384878786818110610be257fe5b9050604002016000013581518110610bf657fe5b6020026020010151613736565b613742565b600101610b77565b50505050505050505050505050565b610c6b7f00000000000000000000000000000000000000000000000000000000000000007f00000000000000000000000000000000000000000000000000000000000000008487613681565b915060007f00000000000000000000000000000000000000000000000000000000000000006001600160a01b031663ea598cb0846040518263ffffffff1660e01b8152600401610cbb9190615cfa565b602060405180830381600087803b158015610cd557600080fd5b505af1158015610ce9573d6000803e3d6000fd5b505050506040513d601f19601f82011682018060405250810190610d0d91906153ee565b9050610d3b7f0000000000000000000000000000000000000000000000000000000000000000858385613653565b5050505050565b6000856001600160a01b0316636f307dc36040518163ffffffff1660e01b815260040160206040518083038186803b158015610d7d57600080fd5b505afa158015610d91573d6000803e3d6000fd5b505050506040513d601f19601f82011682018060405250810190610db591906148b5565b9050610dc381878588613681565b6040517fa0712d680000000000000000000000000000000000000000000000000000000081529093506001600160a01b0387169063a0712d6890610e0b908690600401615cfa565b602060405180830381600087803b158015610e2557600080fd5b505af1158015610e39573d6000803e3d6000fd5b505050506040513d601f19601f82011682018060405250810190610e5d91906153ee565b15610e7a5760405162461bcd60e51b8152600401610a6990615bca565b6040517f70a082310000000000000000000000000000000000000000000000000000000081526000906001600160a01b038816906370a0823190610ec290309060040161564e565b60206040518083038186803b158015610eda57600080fd5b505afa158015610eee573d6000803e3d6000fd5b505050506040513d601f19601f82011682018060405250810190610f1291906153ee565b9050610a0d87868386613653565b610f29826135b3565b915060007f00000000000000000000000000000000000000000000000000000000000000006001600160a01b031663a1903eab84306040518363ffffffff1660e01b8152600401610f7a919061564e565b6020604051808303818588803b158015610f9357600080fd5b505af1158015610fa7573d6000803e3d6000fd5b50505050506040513d601f19601f82011682018060405250810190610fcc91906153ee565b90506106df7f0000000000000000000000000000000000000000000000000000000000000000858385613653565b336110086020870187614899565b6001600160a01b031614806110315750306110266020870187614899565b6001600160a01b0316145b61104d5760405162461bcd60e51b8152600401610a6990615b5c565b61105a86608001516136c4565b156110725761106c866080015161370b565b60808701525b600061107c61266c565b6001600160a01b03166352bbbe2984898989896040518663ffffffff1660e01b81526004016110ae9493929190615c6f565b6020604051808303818588803b1580156110c757600080fd5b505af11580156110db573d6000803e3d6000fd5b50505050506040513d601f19601f8201168201806040525081019061110091906153ee565b905061110b826136c4565b15610a0d57610a0d8282613742565b611125858386613755565b91506000856001600160a01b0316636f307dc36040518163ffffffff1660e01b815260040160206040518083038186803b15801561116257600080fd5b505afa158015611176573d6000803e3d6000fd5b505050506040513d601f19601f8201168201806040525081019061119a91906148b5565b6040517f2e1a7d4d0000000000000000000000000000000000000000000000000000000081529091506001600160a01b03871690632e1a7d4d906111e2908690600401615cfa565b600060405180830381600087803b1580156111fc57600080fd5b505af1158015611210573d6000803e3d6000fd5b50506040517f70a08231000000000000000000000000000000000000000000000000000000008152600092506001600160a01b03841691506370a082319061125c90309060040161564e565b60206040518083038186803b15801561127457600080fd5b505afa158015611288573d6000803e3d6000fd5b505050506040513d601f19601f820116820180604052508101906112ac91906153ee565b9050610a0d82868386613653565b6040517f3b9f73840000000000000000000000000000000000000000000000000000000081526000906001600160a01b037f00000000000000000000000000000000000000000000000000000000000000001690633b9f73849061132690879087903390600401615875565b602060405180830381600087803b15801561134057600080fd5b505af1158015611354573d6000803e3d6000fd5b505050506040513d601f19601f8201168201806040525081019061137891906153ee565b90506106df82826136ac565b61138d836136c4565b1561139e5761139b8361370b565b92505b60008261141d57866001600160a01b03166351c0e0616040518163ffffffff1660e01b8152600401602060405180830381600087803b1580156113e057600080fd5b505af11580156113f4573d6000803e3d6000fd5b505050506040513d601f19601f8201168201806040525081019061141891906148b5565b611490565b866001600160a01b0316634800d97f6040518163ffffffff1660e01b8152600401602060405180830381600087803b15801561145857600080fd5b505af115801561146c573d6000803e3d6000fd5b505050506040513d601f19601f8201168201806040525081019061149091906148b5565b90506001600160a01b03861630146114d5576001600160a01b03861633146114ca5760405162461bcd60e51b8152600401610a6990615b5c565b6114d58682866137a1565b6114e96001600160a01b038216888661383d565b6040517f2f2cab870000000000000000000000000000000000000000000000000000000081526000906001600160a01b03891690632f2cab8790611537908990899086908a90600401615849565b602060405180830381600087803b15801561155157600080fd5b505af1158015611565573d6000803e3d6000fd5b505050506040513d601f19601f8201168201806040525081019061158991906153ee565b9050611594836136c4565b156115a3576115a38382613742565b5050505050505050565b6115b8858386613755565b91506000856001600160a01b0316636f307dc36040518163ffffffff1660e01b815260040160206040518083038186803b1580156115f557600080fd5b505afa158015611609573d6000803e3d6000fd5b505050506040513d601f19601f8201168201806040525081019061162d91906148b5565b6040517fdb006a750000000000000000000000000000000000000000000000000000000081529091506001600160a01b0387169063db006a7590611675908690600401615cfa565b602060405180830381600087803b15801561168f57600080fd5b505af11580156116a3573d6000803e3d6000fd5b505050506040513d601f19601f820116820180604052508101906116c791906153ee565b156116e45760405162461bcd60e51b8152600401610a6990615b25565b6040517f70a082310000000000000000000000000000000000000000000000000000000081526000906001600160a01b038316906370a082319061125c90309060040161564e565b7f0000000000000000000000000000000000000000000000000000000000000000156117625761175d838383613989565b61176d565b61176d838383613a3c565b505050565b61177d858386613755565b91506000856001600160a01b031663eb3beb296040518163ffffffff1660e01b815260040160206040518083038186803b1580156117ba57600080fd5b505afa1580156117ce573d6000803e3d6000fd5b505050506040513d601f19601f820116820180604052508101906117f291906148b5565b90506000866001600160a01b03166338d52e0f6040518163ffffffff1660e01b815260040160206040518083038186803b15801561182f57600080fd5b505afa158015611843573d6000803e3d6000fd5b505050506040513d601f19601f8201168201806040525081019061186791906148b5565b6040517fead5d3590000000000000000000000000000000000000000000000000000000081529091506001600160a01b0383169063ead5d359906118d49084907fffffffffffffffffffffffffffffffffffffffffffffffffffffffffffffffff90600090600401615826565b6040805180830381600087803b1580156118ed57600080fd5b505af1158015611901573d6000803e3d6000fd5b505050506040513d601f19601f820116820180604052508101906119259190615406565b50506040517f70a082310000000000000000000000000000000000000000000000000000000081526000906001600160a01b038316906370a082319061196f90309060040161564e565b60206040518083038186803b15801561198757600080fd5b505afa15801561199b573d6000803e3d6000fd5b505050506040513d601f19601f820116820180604052508101906119bf91906153ee565b90506115a382878387613653565b6000856001600160a01b031663fc0c546a6040518163ffffffff1660e01b815260040160206040518083038186803b158015611a0857600080fd5b505afa158015611a1c573d6000803e3d6000fd5b505050506040513d601f19601f82011682018060405250810190611a4091906148b5565b9050611a4e81878588613681565b92506000866001600160a01b0316636e553f6585876040518363ffffffff1660e01b8152600401611a80929190615d03565b602060405180830381600087803b158015611a9a57600080fd5b505af1158015611aae573d6000803e3d6000fd5b505050506040513d601f19601f82011682018060405250810190611ad291906153ee565b9050610a0d83826136ac565b6000856001600160a01b03166338d52e0f6040518163ffffffff1660e01b815260040160206040518083038186803b158015611b1957600080fd5b505afa158015611b2d573d6000803e3d6000fd5b505050506040513d601f19601f82011682018060405250810190611b5191906148b5565b90506000866001600160a01b031663eb3beb296040518163ffffffff1660e01b815260040160206040518083038186803b158015611b8e57600080fd5b505afa158015611ba2573d6000803e3d6000fd5b505050506040513d601f19601f82011682018060405250810190611bc691906148b5565b9050611bd482828689613681565b93506000816001600160a01b031663fbf178db84888860006040518563ffffffff1660e01b8152600401611c0b94939291906156fa565b6040805180830381600087803b158015611c2457600080fd5b505af1158015611c38573d6000803e3d6000fd5b505050506040513d601f19601f82011682018060405250810190611c5c9190615406565b9150506115a384826136ac565b6000866001600160a01b0316637158da7c6040518163ffffffff1660e01b815260040160206040518083038186803b158015611ca457600080fd5b505afa158015611cb8573d6000803e3d6000fd5b505050506040513d601f19601f82011682018060405250810190611cdc91906148b5565b9050611cea81878588613681565b6040517fe2bbb1580000000000000000000000000000000000000000000000000000000081529093506001600160a01b0388169063e2bbb15890611d35906000908790600401615640565b600060405180830381600087803b158015611d4f57600080fd5b505af1158015611d63573d6000803e3d6000fd5b50506040517f70a08231000000000000000000000000000000000000000000000000000000008152600092506001600160a01b038a1691506370a0823190611daf90309060040161564e565b60206040518083038186803b158015611dc757600080fd5b505afa158015611ddb573d6000803e3d6000fd5b505050506040513d601f19601f82011682018060405250810190611dff91906153ee565b90506115a388868386613653565b611e18858386613755565b91506000856001600160a01b031663ea785a5e85856040518363ffffffff1660e01b8152600401611e4a92919061580d565b602060405180830381600087803b158015611e6457600080fd5b505af1158015611e78573d6000803e3d6000fd5b505050506040513d601f19601f82011682018060405250810190611e9c91906153ee565b9050611ea882826136ac565b505050505050565b611ebb848285613755565b6040517f2e1a7d4d0000000000000000000000000000000000000000000000000000000081529091506001600160a01b03851690632e1a7d4d90611f03908490600401615cfa565b600060405180830381600087803b158015611f1d57600080fd5b505af1158015611f31573d6000803e3d6000fd5b505050506001600160a01b03821630146106df576000846001600160a01b03166382c630666040518163ffffffff1660e01b815260040160206040518083038186803b158015611f8057600080fd5b505afa158015611f94573d6000803e3d6000fd5b505050506040513d601f19601f82011682018060405250810190611fb891906148b5565b9050610d3b6001600160a01b0382168484613b56565b6000856001600160a01b03166338d52e0f6040518163ffffffff1660e01b815260040160206040518083038186803b158015611a0857600080fd5b612012836136c4565b15612023576120208361370b565b92505b6001600160a01b0385163014612066576001600160a01b038516331461205b5760405162461bcd60e51b8152600401610a6990615b5c565b6120668587856137a1565b6040517fead5d3590000000000000000000000000000000000000000000000000000000081526000906001600160a01b0388169063ead5d359906120b290889088908890600401615826565b6040805180830381600087803b1580156120cb57600080fd5b505af11580156120df573d6000803e3d6000fd5b505050506040513d601f19601f820116820180604052508101906121039190615406565b91505061110b826136c4565b6000846001600160a01b03166382c630666040518163ffffffff1660e01b815260040160206040518083038186803b15801561214a57600080fd5b505afa15801561215e573d6000803e3d6000fd5b505050506040513d601f19601f8201168201806040525081019061218291906148b5565b905061219081868487613681565b6040517f6e553f650000000000000000000000000000000000000000000000000000000081529092506001600160a01b03861690636e553f65906121da9085908790600401615d03565b600060405180830381600087803b1580156121f457600080fd5b505af1158015612208573d6000803e3d6000fd5b505050505050505050565b7f000000000000000000000000000000000000000000000000000000000000000090565b6001600160a01b03841630148061224c575082155b6122685760405162461bcd60e51b8152600401610a6990615b93565b606063fa6e671d60e01b33868660405160240161228793929190615662565b60408051601f19818403018152918152602080830180517bffffffffffffffffffffffffffffffffffffffffffffffffffffffff167fffffffff0000000000000000000000000000000000000000000000000000000090951694909417909352516122f692869186910161561b565b60408051601f198184030181529190529050611ea86001600160a01b037f00000000000000000000000000000000000000000000000000000000000000001682613b75565b60005b845181101561241b57336001600160a01b031685828151811061235d57fe5b6020026020010151606001516001600160a01b031614806123a65750306001600160a01b031685828151811061238f57fe5b6020026020010151606001516001600160a01b0316145b6123c25760405162461bcd60e51b8152600401610a6990615b5c565b60008582815181106123d057fe5b60200260200101516040015190506123e7816136c4565b15612412576123f58161370b565b86838151811061240157fe5b602002602001015160400181815250505b5060010161233e565b5061242461266c565b6001600160a01b0316630e8e3e8484866040518363ffffffff1660e01b815260040161245091906158d5565b6000604051808303818588803b15801561246957600080fd5b505af115801561247d573d6000803e3d6000fd5b505050505060005b81811015610d3b5761249c838383818110610b8e57fe5b6124b85760405162461bcd60e51b8152600401610a6990615c38565b6125038383838181106124c757fe5b90506040020160200135868585858181106124de57fe5b90506040020160000135815181106124f257fe5b602002602001015160400151613742565b600101612485565b612516858386613755565b91506000856001600160a01b031662f714ce84866040518363ffffffff1660e01b8152600401611e4a929190615d03565b6040517fc65427940000000000000000000000000000000000000000000000000000000081526001600160a01b037f0000000000000000000000000000000000000000000000000000000000000000169063c6542794906125b89030908a908a908a908a908a908a906004016157ad565b600060405180830381600087803b1580156125d257600080fd5b505af11580156125e6573d6000803e3d6000fd5b50505050505050505050565b866001600160a01b031663d505accf8761260a61266c565b88888888886040518863ffffffff1660e01b8152600401612631979695949392919061576c565b600060405180830381600087803b15801561264b57600080fd5b505af115801561265f573d6000803e3d6000fd5b5050505050505050505050565b7f000000000000000000000000000000000000000000000000000000000000000090565b6001600160a01b0385163314806126af57506001600160a01b03851630145b6126cb5760405162461bcd60e51b8152600401610a6990615b5c565b60006126d688613bef565b905060006126e3836136c4565b6126ee576000612783565b6040517f70a082310000000000000000000000000000000000000000000000000000000081526001600160a01b038316906370a082319061273390899060040161564e565b60206040518083038186803b15801561274b57600080fd5b505afa15801561275f573d6000803e3d6000fd5b505050506040513d601f19601f8201168201806040525081019061278391906153ee565b9050612793888660400151613bf5565b60408601526127a061266c565b6001600160a01b031663b95cac28858b8a8a8a6040518663ffffffff1660e01b81526004016127d29493929190615976565b6000604051808303818588803b1580156127eb57600080fd5b505af11580156127ff573d6000803e3d6000fd5b505050505061280d836136c4565b15612208576040517f70a082310000000000000000000000000000000000000000000000000000000081526000906001600160a01b038416906370a082319061285a908a9060040161564e565b60206040518083038186803b15801561287257600080fd5b505afa158015612886573d6000803e3d6000fd5b505050506040513d601f19601f820116820180604052508101906128aa91906153ee565b90506125e684610c038385613c7c565b6128c5858386613755565b6040517f441a3e700000000000000000000000000000000000000000000000000000000081529092506001600160a01b0386169063441a3e7090612930906000907fffffffffffffffffffffffffffffffffffffffffffffffffffffffffffffffff90600401615640565b600060405180830381600087803b15801561294a57600080fd5b505af115801561295e573d6000803e3d6000fd5b505050506000856001600160a01b0316637158da7c6040518163ffffffff1660e01b815260040160206040518083038186803b15801561299d57600080fd5b505afa1580156129b1573d6000803e3d6000fd5b505050506040513d601f19601f820116820180604052508101906129d591906148b5565b90506000816001600160a01b03166370a08231306040518263ffffffff1660e01b815260040161125c919061564e565b876001600160a01b0316638fcbaf0c88612a1d61266c565b8989898989896040518963ffffffff1660e01b8152600401612a46989796959493929190615723565b600060405180830381600087803b158015612a6057600080fd5b505af1158015612a74573d6000803e3d6000fd5b505050505050505050505050565b6000856001600160a01b0316636f307dc36040518163ffffffff1660e01b815260040160206040518083038186803b158015612abd57600080fd5b505afa158015612ad1573d6000803e3d6000fd5b505050506040513d601f19601f82011682018060405250810190612af591906148b5565b9050612b0381878588613681565b92506000866001600160a01b0316632f4f21e286866040518363ffffffff1660e01b8152600401611a8092919061580d565b6000856001600160a01b0316636f307dc36040518163ffffffff1660e01b815260040160206040518083038186803b158015612b7057600080fd5b505afa158015612b84573d6000803e3d6000fd5b505050506040513d601f19601f82011682018060405250810190612ba891906148b5565b9050612bb681878588613681565b6040517fb6b55f250000000000000000000000000000000000000000000000000000000081529093506001600160a01b0387169063b6b55f2590612bfe908690600401615cfa565b600060405180830381600087803b158015612c1857600080fd5b505af1158015612c2c573d6000803e3d6000fd5b50506040517f70a08231000000000000000000000000000000000000000000000000000000008152600092506001600160a01b03891691506370a0823190610ec290309060040161564e565b612c81816136c4565b15612c9257612c8f8161370b565b90505b612cae612c9d61266c565b6001600160a01b038416908361383d565b5050565b612cbd858386613755565b6040517f2e1a7d4d0000000000000000000000000000000000000000000000000000000081529092506001600160a01b03861690632e1a7d4d90612d05908590600401615cfa565b600060405180830381600087803b158015612d1f57600080fd5b505af1158015612d33573d6000803e3d6000fd5b505050506000856001600160a01b031663fc0c546a6040518163ffffffff1660e01b815260040160206040518083038186803b15801561299d57600080fd5b6001600160a01b038516331480612d9157506001600160a01b03851630145b612dad5760405162461bcd60e51b8152600401610a6990615b5c565b60608167ffffffffffffffff81118015612dc657600080fd5b50604051908082528060200260200182016040528015612df0578160200160208202803683370190505b50905060608267ffffffffffffffff81118015612e0c57600080fd5b50604051908082528060200260200182016040528015612e36578160200160208202803683370190505b50905060005b83811015612fa657612e53858583818110610b8e57fe5b612e6f5760405162461bcd60e51b8152600401610a6990615c38565b8551600090868684818110612e8057fe5b9050604002016000013581518110612e9457fe5b60200260200101519050866060015115612ee257612eb181613c92565b848381518110612ebd57fe5b60200260200101906001600160a01b031690816001600160a01b031681525050612f9d565b612eeb81613c95565b612f7857612ef881613c92565b6001600160a01b03166370a08231896040518263ffffffff1660e01b8152600401612f23919061564e565b60206040518083038186803b158015612f3b57600080fd5b505afa158015612f4f573d6000803e3d6000fd5b505050506040513d601f19601f82011682018060405250810190612f7391906153ee565b612f84565b876001600160a01b0316315b838381518110612f9057fe5b6020026020010181815250505b50600101612e3c565b5084606001511561303d57612fb961266c565b6001600160a01b0316630f5a6efa87846040518363ffffffff1660e01b8152600401612fe6929190615686565b60006040518083038186803b158015612ffe57600080fd5b505afa158015613012573d6000803e3d6000fd5b505050506040513d6000823e601f3d908101601f1916820160405261303a9190810190614c6e565b90505b61304b888660400151613ca2565b604086015261305861266c565b6001600160a01b0316638bdb39138a8989896040518563ffffffff1660e01b81526004016130899493929190615976565b600060405180830381600087803b1580156130a357600080fd5b505af11580156130b7573d6000803e3d6000fd5b50606092508591505067ffffffffffffffff811180156130d657600080fd5b50604051908082528060200260200182016040528015613100578160200160208202803683370190505b50905085606001511561319d5761311561266c565b6001600160a01b0316630f5a6efa88856040518363ffffffff1660e01b8152600401613142929190615686565b60006040518083038186803b15801561315a57600080fd5b505afa15801561316e573d6000803e3d6000fd5b505050506040513d6000823e601f3d908101601f191682016040526131969190810190614c6e565b905061329b565b60005b848110156132995786516000908787848181106131b957fe5b90506040020160000135815181106131cd57fe5b602002602001015190506131e081613c95565b61326d576131ed81613c92565b6001600160a01b03166370a082318a6040518263ffffffff1660e01b8152600401613218919061564e565b60206040518083038186803b15801561323057600080fd5b505afa158015613244573d6000803e3d6000fd5b505050506040513d601f19601f8201168201806040525081019061326891906153ee565b613279565b886001600160a01b0316315b83838151811061328557fe5b6020908102919091010152506001016131a0565b505b60005b8481101561265f576132f88686838181106132b557fe5b90506040020160200135610c038584815181106132ce57fe5b60200260200101518585815181106132e257fe5b6020026020010151613c7c90919063ffffffff16565b60010161329e565b61332b7f00000000000000000000000000000000000000000000000000000000000000008386613755565b915060007f00000000000000000000000000000000000000000000000000000000000000006001600160a01b031663de0e9a3e846040518263ffffffff1660e01b815260040161337b9190615cfa565b602060405180830381600087803b15801561339557600080fd5b505af11580156133a9573d6000803e3d6000fd5b505050506040513d601f19601f820116820180604052508101906133cd91906153ee565b9050610d3b7f0000000000000000000000000000000000000000000000000000000000000000858385613653565b6000856001600160a01b031663fc0c546a6040518163ffffffff1660e01b815260040160206040518083038186803b158015612b7057600080fd5b613441858386613755565b91506000856001600160a01b031663ba0876528486306040518463ffffffff1660e01b8152600401611e4a93929190615d1a565b600061348082613d18565b9392505050565b613492858386613755565b91506000856001600160a01b0316638da5cb5b6040518163ffffffff1660e01b815260040160206040518083038186803b1580156134cf57600080fd5b505afa1580156134e3573d6000803e3d6000fd5b505050506040513d601f19601f8201168201806040525081019061350791906148b5565b6040517f05fe138b0000000000000000000000000000000000000000000000000000000081529091506001600160a01b038216906305fe138b906135519086908890600401615d03565b600060405180830381600087803b15801561356b57600080fd5b505af115801561357f573d6000803e3d6000fd5b50505050611ea882826001600160a01b0316635427c938866040518263ffffffff1660e01b81526004016109b89190615cfa565b60006135be826136c4565b6135c857816135d1565b6135d18261370b565b90505b919050565b6135e8814710156101a3613d2f565b6000826001600160a01b03168260405161360190613c92565b60006040518083038185875af1925050503d806000811461363e576040519150601f19603f3d011682016040523d82523d6000602084013e613643565b606091505b5050905061176d816101a4613d2f565b6001600160a01b0383163014613677576136776001600160a01b0385168484613b56565b6106df81836136ac565b600061368e858484613755565b90506136a46001600160a01b038616858361383d565b949350505050565b6136b5826136c4565b15612cae57612cae8282613742565b7ffff0000000000000000000000000000000000000000000000000000000000000167fba100000000000000000000000000000000000000000000000000000000000001490565b600080600061371984613d18565b9150915061372684613d3d565b1561348057600082559392505050565b60ff81901d9081180390565b600061374d83613d84565b919091555050565b6000613760836135b3565b90506001600160a01b0382163014613480576001600160a01b038216331461379a5760405162461bcd60e51b8152600401610a6990615b5c565b6134808285835b806137ab5761176d565b6040805160018082528183019092526060916020808301908036833701905050905082816000815181106137db57fe5b6001600160a01b039290921660209283029190910190910152604080516001808252818301909252606091816020016020820280368337019050509050828160008151811061382657fe5b602002602001018181525050610d3b858383613de2565b80158015906138e157506040517fdd62ed3e0000000000000000000000000000000000000000000000000000000081526001600160a01b0384169063dd62ed3e9061388e90309086906004016156e0565b60206040518083038186803b1580156138a657600080fd5b505afa1580156138ba573d6000803e3d6000fd5b505050506040513d601f19601f820116820180604052508101906138de91906153ee565b15155b1561396a5761396a8363095ea7b360e01b8460006040516024016139069291906157f1565b60408051601f198184030181529190526020810180517bffffffffffffffffffffffffffffffffffffffffffffffffffffffff167fffffffff0000000000000000000000000000000000000000000000000000000090931692909217909152613f30565b61176d8363095ea7b360e01b848460405160240161390692919061580d565b8060005b81811015610d3b578383828181106139a157fe5b90506020020160208101906139b69190614899565b6001600160a01b0316634b820093866040518263ffffffff1660e01b81526004016139e1919061564e565b602060405180830381600087803b1580156139fb57600080fd5b505af1158015613a0f573d6000803e3d6000fd5b505050506040513d601f19601f82011682018060405250810190613a339190614ca1565b5060010161398d565b8060608167ffffffffffffffff81118015613a5657600080fd5b50604051908082528060200260200182016040528015613a9057816020015b613a7d614481565b815260200190600190039081613a755790505b50905060005b82811015613b22576040805160a081019091528060038152602001868684818110613abd57fe5b9050602002016020810190613ad29190614899565b6001600160a01b0316815260200160018152602001876001600160a01b03168152602001876001600160a01b0316815250828281518110613b0f57fe5b6020908102919091010152600101613a96565b50613b2b61266c565b6001600160a01b0316630e8e3e84826040518263ffffffff1660e01b81526004016121da91906158d5565b61176d8363a9059cbb60e01b848460405160240161390692919061580d565b606060006060846001600160a01b031684604051613b9391906155ff565b6000604051808303816000865af19150503d8060008114613bd0576040519150601f19603f3d011682016040523d82523d6000602084013e613bd5565b606091505b5091509150613be48282613fd0565b925050505b92915050565b60601c90565b60606000836003811115613c0557fe5b1415613c1b57613c1482613ffa565b9050613be9565b6001836003811115613c2957fe5b1480613c4057506002836003811115613c3e57fe5b145b80613c5657506003836003811115613c5457fe5b145b15613c6457613c1482613ffa565b60405162461bcd60e51b8152600401610a6990615c01565b6000613c8c838311156001613d2f565b50900390565b90565b6001600160a01b03161590565b60606000836003811115613cb257fe5b1415613cc157613c1482614037565b6001836003811115613ccf57fe5b1415613cde57613c1482614080565b6002836003811115613cec57fe5b1415613cfb57613c14826140c6565b6003836003811115613d0957fe5b1415613c6457613c14826140f2565b600080613d2483613d84565b915081549050915091565b81612cae57612cae81614125565b7fffff000000000000000000000000000000000000000000000000000000000000167fba100000000000000000000000000000000000000000000000000000000000001490565b60006001613d9183614152565b7f0000000000000000000000000000000000000000000000000000000000000000604051602001613dc3929190615640565b60408051808303601f1901815291905280516020909101200392915050565b6060825167ffffffffffffffff81118015613dfc57600080fd5b50604051908082528060200260200182016040528015613e3657816020015b613e23614481565b815260200190600190039081613e1b5790505b50905060005b8351811015613ece576040805160a081019091528060038152602001858381518110613e6457fe5b60200260200101516001600160a01b03168152602001848381518110613e8657fe5b60200260200101518152602001866001600160a01b03168152602001306001600160a01b0316815250828281518110613ebb57fe5b6020908102919091010152600101613e3c565b50613ed761266c565b6001600160a01b0316630e8e3e84826040518263ffffffff1660e01b8152600401613f0291906158d5565b600060405180830381600087803b158015613f1c57600080fd5b505af11580156115a3573d6000803e3d6000fd5b60006060836001600160a01b031683604051613f4c91906155ff565b6000604051808303816000865af19150503d8060008114613f89576040519150601f19603f3d011682016040523d82523d6000602084013e613f8e565b606091505b50915091506000821415613fa6573d6000803e3d6000fd5b6106df815160001480613fc8575081806020019051810190613fc89190614ca1565b6101a2613d2f565b60608215613fdf575080613be9565b815115613fef5781518083602001fd5b613be96101ae614125565b6060600061400783614175565b9050600181600381111561401757fe5b141561402e576140268361418b565b9150506135d4565b829150506135d4565b60606000614044836141dd565b9050600081600281111561405457fe5b141561406357614026836141f3565b600181600281111561407157fe5b141561402e5761402683614256565b6060600061408d836141dd565b600281111561409857fe5b905060ff81166140ac5761402683826142a9565b60015b60ff168160ff16141561402e57614026838261430b565b606060006140d3836141dd565b60028111156140de57fe5b905060ff811661402e5761402683826142a9565b606060006140ff836141dd565b600281111561410a57fe5b905060ff811661411e5761402683826142a9565b60026140af565b61414f817f42414c0000000000000000000000000000000000000000000000000000000000614366565b50565b7dffffffffffffffffffffffffffffffffffffffffffffffffffffffffffff1690565b6000818060200190518101906135d19190615178565b6060806000614199846143c7565b915091506141a6826143ea565b6141b057836136a4565b600182826040516020016141c6939291906159ea565b604051602081830303815290604052949350505050565b6000818060200190518101906135d191906150f9565b606060008061420184614454565b9150915061420e826136c4565b1561424c5761421c8261370b565b915060008282604051602001614234939291906159c9565b604051602081830303815290604052925050506135d4565b83925050506135d4565b606060006142638361446b565b905061426e816136c4565b1561402e5761427c8161370b565b90506001816040516020016142929291906159b2565b6040516020818303038152906040529150506135d4565b60606000806142b785614454565b915091506142c4826136c4565b15614301576142d28261370b565b91508382826040516020016142e993929190615d6b565b60405160208183030381529060405292505050613be9565b8492505050613be9565b606060006143188461446b565b9050614323816136c4565b1561435d576143318161370b565b90508281604051602001614346929190615d58565b604051602081830303815290604052915050613be9565b83915050613be9565b62461bcd60e51b600090815260206004526007602452600a808404818106603090810160081b958390069590950190829004918206850160101b01602363ffffff0060e086901c160160181b0190930160c81b60445260e882901c90606490fd5b60606000828060200190518101906143df9190615194565b909590945092505050565b600080805b835181101561444d57600084828151811061440657fe5b60200260200101519050614419816136c4565b15614444576144278161370b565b85838151811061443357fe5b602002602001018181525050600192505b506001016143ef565b5092915050565b600080828060200190518101906143df9190615142565b6000818060200190518101906134809190615115565b6040805160a081019091528060008152600060208201819052604082018190526060820181905260809091015290565b8035613be981615e17565b60008083601f8401126144cd578182fd5b50813567ffffffffffffffff8111156144e4578182fd5b60208301915083602080830285010111156144fe57600080fd5b9250929050565b600082601f830112614515578081fd5b813561452861452382615dad565b615d86565b81815291506020808301908481018184028601820187101561454957600080fd5b60005b8481101561457157813561455f81615e17565b8452928201929082019060010161454c565b505050505092915050565b600082601f83011261458c578081fd5b813561459a61452382615dad565b818152915060208083019084810160005b84811015614571578135870160a080601f19838c030112156145cc57600080fd5b6145d581615d86565b85830135815260408084013587830152606080850135828401526080915081850135818401525082840135925067ffffffffffffffff83111561461757600080fd5b6146258c8885870101614747565b908201528652505092820192908201906001016145ab565b60008083601f84011261464e578182fd5b50813567ffffffffffffffff811115614665578182fd5b6020830191508360206040830285010111156144fe57600080fd5b600082601f830112614690578081fd5b813561469e61452382615dad565b8181529150602080830190848101818402860182018710156146bf57600080fd5b60005b84811015614571578135845292820192908201906001016146c2565b600082601f8301126146ee578081fd5b81516146fc61452382615dad565b81815291506020808301908481018184028601820187101561471d57600080fd5b60005b8481101561457157815184529282019290820190600101614720565b8035613be981615e2c565b600082601f830112614757578081fd5b813567ffffffffffffffff81111561476d578182fd5b6147806020601f19601f84011601615d86565b915080825283602082850101111561479757600080fd5b8060208401602084013760009082016020015292915050565b8035613be981615e47565b803560028110613be957600080fd5b6000608082840312156147db578081fd5b6147e56080615d86565b9050813567ffffffffffffffff808211156147ff57600080fd5b61480b85838601614505565b8352602084013591508082111561482157600080fd5b61482d85838601614680565b6020840152604084013591508082111561484657600080fd5b5061485384828501614747565b604083015250614866836060840161473c565b606082015292915050565b600060808284031215614882578081fd5b50919050565b803560ff81168114613be957600080fd5b6000602082840312156148aa578081fd5b813561348081615e17565b6000602082840312156148c6578081fd5b815161348081615e17565b600080600080608085870312156148e6578283fd5b84356148f181615e17565b9350602085013561490181615e17565b93969395505050506040820135916060013590565b60008060006040848603121561492a578081fd5b833561493581615e17565b9250602084013567ffffffffffffffff811115614950578182fd5b61495c868287016144bc565b9497909650939450505050565b6000806000806060858703121561497e578182fd5b843561498981615e17565b9350602085013561499981615e2c565b9250604085013567ffffffffffffffff808211156149b5578384fd5b818701915087601f8301126149c8578384fd5b8135818111156149d6578485fd5b8860208285010111156149e7578485fd5b95989497505060200194505050565b600080600060608486031215614a0a578081fd5b8335614a1581615e17565b95602085013595506040909401359392505050565b600080600060408486031215614a3e578081fd5b833567ffffffffffffffff811115614a54578182fd5b614a60868287016144bc565b909790965060209590950135949350505050565b60008060208385031215614a86578182fd5b823567ffffffffffffffff811115614a9c578283fd5b614aa8858286016144bc565b90969095509350505050565b60006020808385031215614ac6578182fd5b825167ffffffffffffffff811115614adc578283fd5b8301601f81018513614aec578283fd5b8051614afa61452382615dad565b8181528381019083850185840285018601891015614b16578687fd5b8694505b83851015614b38578051835260019490940193918501918501614b1a565b50979650505050505050565b60008060008060608587031215614b59578182fd5b843567ffffffffffffffff80821115614b70578384fd5b818701915087601f830112614b83578384fd5b8135614b9161452382615dad565b808282526020808301925080860160a08d838288028a01011115614bb357898afd5b8997505b85881015614c365780828f031215614bcd57898afd5b614bd681615d86565b614be08f846147b0565b8152614bee8f8585016144b1565b8185015260408381013590820152614c098f606085016144b1565b6060820152614c1b8f608085016144b1565b60808201528552600197909701969382019390810190614bb7565b509199508a013597505050604088013592505080821115614c55578384fd5b50614c628782880161463d565b95989497509550505050565b600060208284031215614c7f578081fd5b815167ffffffffffffffff811115614c95578182fd5b6136a4848285016146de565b600060208284031215614cb2578081fd5b815161348081615e2c565b60008060008060008060c08789031215614cd5578384fd5b8635614ce081615e2c565b95506020870135614cf081615e17565b945060408701359350614d068860608901614888565b92506080870135915060a087013590509295509295509295565b600080600080600080600060c0888a031215614d3a578485fd5b873596506020880135614d4c81615e47565b95506040880135614d5c81615e17565b94506060880135614d6c81615e17565b9350608088013567ffffffffffffffff80821115614d88578283fd5b614d948b838c016147ca565b945060a08a0135915080821115614da9578283fd5b50614db68a828b0161463d565b989b979a50959850939692959293505050565b600080600080600080600060e0888a031215614de3578081fd5b873596506020880135614df581615e47565b95506040880135614e0581615e17565b94506060880135614e1581615e17565b9350608088013567ffffffffffffffff811115614e30578182fd5b614e3c8a828b016147ca565b93505060a0880135915060c0880135905092959891949750929550565b600080600080600060a08688031215614e70578283fd5b8535614e7b81615e17565b94506020860135614e8b81615e17565b93506040860135614e9b81615e17565b94979396509394606081013594506080013592915050565b600080600080600080600080610100898b031215614ecf578182fd5b8835614eda81615e17565b97506020890135614eea81615e17565b965060408901359550606089013594506080890135614f0881615e2c565b9350614f178a60a08b01614888565b925060c0890135915060e089013590509295985092959890939650565b600080600080600080600060e0888a031215614f4e578081fd5b8735614f5981615e17565b96506020880135614f6981615e17565b95506040880135945060608801359350614f868960808a01614888565b925060a0880135915060c0880135905092959891949750929550565b60008060408385031215614fb4578182fd5b8235614fbf81615e17565b946020939093013593505050565b60008060008060008060c08789031215614fe5578384fd5b8635614ff081615e17565b9550602087013561500081615e17565b9450604087013561501081615e17565b9350606087013561502081615e17565b9598949750929560808101359460a0909101359350915050565b6000806000806080858703121561504f578182fd5b843561505a81615e17565b9350602085013561506a81615e17565b9250604085013561507a81615e17565b9396929550929360600135925050565b60008060008060008060c087890312156150a2578384fd5b86356150ad81615e17565b955060208701356150bd81615e17565b945060408701356150cd81615e17565b93506060870135925060808701356150e481615e2c565b8092505060a087013590509295509295509295565b60006020828403121561510a578081fd5b815161348081615e3a565b60008060408385031215615127578182fd5b825161513281615e3a565b6020939093015192949293505050565b600080600060608486031215615156578081fd5b835161516181615e3a565b602085015160409095015190969495509392505050565b600060208284031215615189578081fd5b815161348081615e47565b6000806000606084860312156151a8578081fd5b83516151b381615e47565b602085015190935067ffffffffffffffff8111156151cf578182fd5b6151db868287016146de565b925050604084015190509250925092565b60008060008060008060008060008060006101608c8e03121561520d578485fd5b6152178d8d6147bb565b9a5067ffffffffffffffff8060208e01351115615232578586fd5b6152428e60208f01358f0161457c565b9a508060408e01351115615254578586fd5b6152648e60408f01358f016144bc565b909a5098506152768e60608f01614871565b97508060e08e01351115615288578586fd5b6152988e60e08f01358f016144bc565b90975095506101008d013594506101208d013593506101408d01358110156152be578283fd5b506152d08d6101408e01358e0161463d565b81935080925050509295989b509295989b9093969950565b6000806000806000806101208789031215615301578384fd5b863567ffffffffffffffff80821115615318578586fd5b9088019060c0828b03121561532b578586fd5b61533560c0615d86565b823581526153468b602085016147bb565b6020820152604083013561535981615e17565b604082015261536b8b606085016144b1565b60608201526080830135608082015260a08301358281111561538b578788fd5b6153978c828601614747565b60a0830152508098505050506153b08860208901614871565b959895975050505060a08401359360c08101359360e08201359350610100909101359150565b6000602082840312156153e7578081fd5b5035919050565b6000602082840312156153ff578081fd5b5051919050565b60008060408385031215615418578182fd5b505080516020909101519092909150565b6001600160a01b03169052565b60008284526020808501945082825b8581101561547357813561545881615e17565b6001600160a01b031687529582019590820190600101615445565b509495945050505050565b60008284526020808501945082825b858110156154735781358752958201959082019060010161548d565b6000815180845260208085019450808401835b83811015615473578151875295820195908201906001016154bc565b15159052565b600081518084526154f6816020860160208601615dcd565b601f01601f19169290920160200192915050565b8051608080845281519084018190526000916020919082019060a0860190845b8181101561554f5783516001600160a01b03168352928401929184019160010161552a565b50508285015191508581038387015261556881836154a9565b925050506040830151848203604086015261558382826154de565b915050606083015161559860608601826154d8565b509392505050565b80356155ab81615e17565b6001600160a01b0390811683526020820135906155c782615e2c565b90151560208401526040820135906155de82615e17565b16604083015260608101356155f281615e2c565b8015156060840152505050565b60008251615611818460208701615dcd565b9190910192915050565b6000845161562d818460208901615dcd565b8201838582379092019182525092915050565b918252602082015260400190565b6001600160a01b0391909116815260200190565b6001600160a01b039384168152919092166020820152901515604082015260600190565b6000604082016001600160a01b03808616845260206040818601528286518085526060870191508288019450855b818110156156d25785518516835294830194918301916001016156b4565b509098975050505050505050565b6001600160a01b0392831681529116602082015260400190565b6001600160a01b0394851681529290931660208301526040820152901515606082015260800190565b6001600160a01b039889168152969097166020870152604086019490945260608501929092521515608084015260ff1660a083015260c082015260e08101919091526101000190565b6001600160a01b0397881681529590961660208601526040850193909352606084019190915260ff16608083015260a082015260c081019190915260e00190565b6001600160a01b0397881681529515156020870152939095166040850152606084019190915260ff16608083015260a082019290925260c081019190915260e00190565b6001600160a01b0392909216825260ff16602082015260400190565b6001600160a01b03929092168252602082015260400190565b6001600160a01b0393909316835260208301919091521515604082015260600190565b6001600160a01b03949094168452602084019290925261ffff1660408301521515606082015260800190565b6040808252810183905260008460608301825b868110156158b8576020833561589d81615e17565b6001600160a01b031683529283019290910190600101615888565b5080925050506001600160a01b0383166020830152949350505050565b602080825282518282018190526000919060409081850190868401855b8281101561595e578151805161590781615e03565b8552808701516001600160a01b031687860152858101518686015260608082015161593482880182615429565b50506080908101519061594986820183615429565b505060a09390930192908501906001016158f2565b5091979650505050505050565b901515815260200190565b60008582526001600160a01b038086166020840152808516604084015250608060608301526159a8608083018461550a565b9695505050505050565b604081016159bf84615df9565b9281526020015290565b606081016159d685615df9565b938152602081019290925260409091015290565b60006159f585615e03565b84825260606020830152615a0c60608301856154a9565b9050826040830152949350505050565b6000610120808301615a2d8c615e0d565b8b84526020808501929092528a5190819052610140808501928281028601909101918c8201855b82811015615ad4578785037ffffffffffffffffffffffffffffffffffffffffffffffffffffffffffffffec00186528151805186528481015185870152604080820151908701526060808201519087015260809081015160a091870182905290615ac0818801836154de565b978601979650505090830190600101615a54565b505050508381036040850152615aeb818a8c615436565b915050615afb60608401886155a0565b82810360e0840152615b0e81868861547e565b915050826101008301529998505050505050505050565b60208082526011908201527f756e7772617070696e67206661696c6564000000000000000000000000000000604082015260600190565b60208082526010908201527f496e636f72726563742073656e64657200000000000000000000000000000000604082015260600190565b6020808252601f908201527f52656c617965722063616e206f6e6c7920617070726f766520697473656c6600604082015260600190565b6020808252600f908201527f7772617070696e67206661696c65640000000000000000000000000000000000604082015260600190565b60208082526013908201527f554e48414e444c45445f504f4f4c5f4b494e4400000000000000000000000000604082015260600190565b60208082526019908201527f696e76616c696420636861696e6564207265666572656e636500000000000000604082015260600190565b600060e08252855160e08301526020860151615c8a81615e0d565b61010083015260408601516001600160a01b03908116610120840152606087015116610140830152608086015161016083015260a086015160c0610180840152615cd86101a08401826154de565b915050615ce860208301866155a0565b60a082019390935260c0015292915050565b90815260200190565b9182526001600160a01b0316602082015260400190565b9283526001600160a01b03918216602084015216604082015260600190565b9283526001600160a01b03919091166020830152604082015260600190565b60ff929092168252602082015260400190565b60ff9390931683526020830191909152604082015260600190565b60405181810167ffffffffffffffff81118282101715615da557600080fd5b604052919050565b600067ffffffffffffffff821115615dc3578081fd5b5060209081020190565b60005b83811015615de8578181015183820152602001615dd0565b838111156106df5750506000910152565b6003811061414f57fe5b6004811061414f57fe5b6002811061414f57fe5b6001600160a01b038116811461414f57600080fd5b801515811461414f57600080fd5b6003811061414f57600080fd5b6004811061414f57600080fdfea26469706673582212201ec40c4a4738e1dd9206f7dbef6a97a907fb8d94ee88550dbda97e3e5459c62364736f6c6343000701003360c060405234801561001057600080fd5b506040516109f63803806109f683398101604081905261002f91610107565b806100398161005d565b5050600180556001600160601b0319606092831b8116608052911b1660a052610203565b8051610070906000906020840190610074565b5050565b828054600181600116156101000203166002900490600052602060002090601f016020900481019282601f106100b557805160ff19168380011785556100e2565b828001600101855582156100e2579182015b828111156100e25782518255916020019190600101906100c7565b506100ee9291506100f2565b5090565b5b808211156100ee57600081556001016100f3565b60008060006060848603121561011b578283fd5b8351610126816101eb565b80935050602080850151610139816101eb565b60408601519093506001600160401b0380821115610155578384fd5b818701915087601f830112610168578384fd5b815181811115610176578485fd5b604051601f8201601f1916810185018381118282101715610195578687fd5b60405281815283820185018a10156101ab578586fd5b8592505b818310156101cc57838301850151818401860152918401916101af565b818311156101dc57858583830101525b80955050505050509250925092565b6001600160a01b038116811461020057600080fd5b50565b60805160601c60a05160601c6107c1610235600039806101dd52806102f05250806063528061020152506107c16000f3fe6080604052600436106100435760003560e01c806354fd4d50146100935780637678922e146100be5780638d928af8146100e0578063ac9650d8146100f55761008e565b3661008e5761008c3373ffffffffffffffffffffffffffffffffffffffff7f00000000000000000000000000000000000000000000000000000000000000001614610206610115565b005b600080fd5b34801561009f57600080fd5b506100a8610127565b6040516100b591906106d7565b60405180910390f35b3480156100ca57600080fd5b506100d36101db565b6040516100b59190610638565b3480156100ec57600080fd5b506100d36101ff565b610108610103366004610560565b610223565b6040516100b59190610659565b81610123576101238161034f565b5050565b60008054604080516020601f60027fffffffffffffffffffffffffffffffffffffffffffffffffffffffffffffffff6101006001881615020190951694909404938401819004810282018101909252828152606093909290918301828280156101d15780601f106101a6576101008083540402835291602001916101d1565b820191906000526020600020905b8154815290600101906020018083116101b457829003601f168201915b5050505050905090565b7f000000000000000000000000000000000000000000000000000000000000000090565b7f000000000000000000000000000000000000000000000000000000000000000090565b606061022d61037c565b8167ffffffffffffffff8111801561024457600080fd5b5060405190808252806020026020018201604052801561027857816020015b60608152602001906001900390816102635790505b50905060005b828110156103385761031984848381811061029557fe5b90506020028101906102a791906106f1565b8080601f0160208091040260200160405190810160405280939291908181526020018383808284376000920191909152505073ffffffffffffffffffffffffffffffffffffffff7f00000000000000000000000000000000000000000000000000000000000000001692915050610395565b82828151811061032557fe5b602090810291909101015260010161027e565b50610341610418565b610349610429565b92915050565b610379817f42414c000000000000000000000000000000000000000000000000000000000061042f565b50565b61038e60026001541415610190610115565b6002600155565b6060600060608473ffffffffffffffffffffffffffffffffffffffff16846040516103c09190610619565b600060405180830381855af49150503d80600081146103fb576040519150601f19603f3d011682016040523d82523d6000602084013e610400565b606091505b509150915061040f82826104aa565b95945050505050565b4780156103795761037933826104d4565b60018055565b7f08c379a000000000000000000000000000000000000000000000000000000000600090815260206004526007602452600a808404818106603090810160081b958390069590950190829004918206850160101b01602363ffffff0060e086901c160160181b0190930160c81b60445260e882901c90606490fd5b606082156104b9575080610349565b8151156104c95781518083602001fd5b6103496101ae61034f565b6104e3814710156101a3610115565b60008273ffffffffffffffffffffffffffffffffffffffff168260405161050990610635565b60006040518083038185875af1925050503d8060008114610546576040519150601f19603f3d011682016040523d82523d6000602084013e61054b565b606091505b5050905061055b816101a4610115565b505050565b60008060208385031215610572578182fd5b823567ffffffffffffffff80821115610589578384fd5b818501915085601f83011261059c578384fd5b8135818111156105aa578485fd5b86602080830285010111156105bd578485fd5b60209290920196919550909350505050565b600081518084526105e781602086016020860161075b565b601f017fffffffffffffffffffffffffffffffffffffffffffffffffffffffffffffffe0169290920160200192915050565b6000825161062b81846020870161075b565b9190910192915050565b90565b73ffffffffffffffffffffffffffffffffffffffff91909116815260200190565b6000602080830181845280855180835260408601915060408482028701019250838701855b828110156106ca577fffffffffffffffffffffffffffffffffffffffffffffffffffffffffffffffc08886030184526106b88583516105cf565b9450928501929085019060010161067e565b5092979650505050505050565b6000602082526106ea60208301846105cf565b9392505050565b60008083357fffffffffffffffffffffffffffffffffffffffffffffffffffffffffffffffe1843603018112610725578283fd5b83018035915067ffffffffffffffff82111561073f578283fd5b60200191503681900382131561075457600080fd5b9250929050565b60005b8381101561077657818101518382015260200161075e565b83811115610785576000848401525b5050505056fea2646970667358221220a48df7ee263b9ec1f02e43e8caae1e9f83bc81f5da0de345a64a78afaf6947f364736f6c63430007010033",
  "linkReferences": {},
  "deployedLinkReferences": {}
}