{
  "_format": "hh-sol-artifact-1",
  "contractName": "StakelessGaugeCheckpointer",
  "sourceName": "contracts/gauges/StakelessGaugeCheckpointer.sol",
  "abi": [
    {
      "inputs": [
        {
          "internalType": "contract IGaugeAdder",
          "name": "gaugeAdder",
          "type": "address"
        },
        {
          "internalType": "contract IAuthorizerAdaptorEntrypoint",
          "name": "authorizerAdaptorEntrypoint",
          "type": "address"
        }
      ],
      "stateMutability": "nonpayable",
      "type": "constructor"
    },
    {
      "anonymous": false,
      "inputs": [
        {
          "indexed": true,
          "internalType": "contract IStakelessGauge",
          "name": "gauge",
          "type": "address"
        },
        {
          "indexed": true,
          "internalType": "string",
          "name": "indexedGaugeType",
          "type": "string"
        },
        {
          "indexed": false,
          "internalType": "string",
          "name": "gaugeType",
          "type": "string"
        }
      ],
      "name": "GaugeAdded",
      "type": "event"
    },
    {
      "anonymous": false,
      "inputs": [
        {
          "indexed": true,
          "internalType": "contract IStakelessGauge",
          "name": "gauge",
          "type": "address"
        },
        {
          "indexed": true,
          "internalType": "string",
          "name": "indexedGaugeType",
          "type": "string"
        },
        {
          "indexed": false,
          "internalType": "string",
          "name": "gaugeType",
          "type": "string"
        }
      ],
      "name": "GaugeRemoved",
      "type": "event"
    },
    {
      "inputs": [
        {
          "internalType": "string",
          "name": "gaugeType",
          "type": "string"
        },
        {
          "internalType": "contract IStakelessGauge[]",
          "name": "gauges",
          "type": "address[]"
        }
      ],
      "name": "addGauges",
      "outputs": [],
      "stateMutability": "nonpayable",
      "type": "function"
    },
    {
      "inputs": [
        {
          "internalType": "string",
          "name": "gaugeType",
          "type": "string"
        },
        {
          "internalType": "contract IStakelessGauge[]",
          "name": "gauges",
          "type": "address[]"
        }
      ],
      "name": "addGaugesWithVerifiedType",
      "outputs": [],
      "stateMutability": "nonpayable",
      "type": "function"
    },
    {
      "inputs": [
        {
          "internalType": "uint256",
          "name": "minRelativeWeight",
          "type": "uint256"
        }
      ],
      "name": "checkpointAllGaugesAboveRelativeWeight",
      "outputs": [],
      "stateMutability": "payable",
      "type": "function"
    },
    {
      "inputs": [
        {
          "internalType": "string[]",
          "name": "gaugeTypes",
          "type": "string[]"
        },
        {
          "internalType": "uint256",
          "name": "minRelativeWeight",
          "type": "uint256"
        }
      ],
      "name": "checkpointGaugesOfTypesAboveRelativeWeight",
      "outputs": [],
      "stateMutability": "payable",
      "type": "function"
    },
    {
      "inputs": [
        {
          "internalType": "string[]",
          "name": "gaugeTypes",
          "type": "string[]"
        },
        {
          "internalType": "contract IStakelessGauge[]",
          "name": "gauges",
          "type": "address[]"
        }
      ],
      "name": "checkpointMultipleGauges",
      "outputs": [],
      "stateMutability": "payable",
      "type": "function"
    },
    {
      "inputs": [
        {
          "internalType": "string",
          "name": "gaugeType",
          "type": "string"
        },
        {
          "internalType": "contract IStakelessGauge[]",
          "name": "gauges",
          "type": "address[]"
        }
      ],
      "name": "checkpointMultipleGaugesOfMatchingType",
      "outputs": [],
      "stateMutability": "payable",
      "type": "function"
    },
    {
      "inputs": [
        {
          "internalType": "string",
          "name": "gaugeType",
          "type": "string"
        },
        {
          "internalType": "contract IStakelessGauge",
          "name": "gauge",
          "type": "address"
        }
      ],
      "name": "checkpointSingleGauge",
      "outputs": [],
      "stateMutability": "payable",
      "type": "function"
    },
    {
      "inputs": [
        {
          "internalType": "bytes4",
          "name": "selector",
          "type": "bytes4"
        }
      ],
      "name": "getActionId",
      "outputs": [
        {
          "internalType": "bytes32",
          "name": "",
          "type": "bytes32"
        }
      ],
      "stateMutability": "view",
      "type": "function"
    },
    {
      "inputs": [],
      "name": "getAuthorizer",
      "outputs": [
        {
          "internalType": "contract IAuthorizer",
          "name": "",
          "type": "address"
        }
      ],
      "stateMutability": "view",
      "type": "function"
    },
    {
      "inputs": [],
      "name": "getGaugeAdder",
      "outputs": [
        {
          "internalType": "contract IGaugeAdder",
          "name": "",
          "type": "address"
        }
      ],
      "stateMutability": "view",
      "type": "function"
    },
    {
      "inputs": [
        {
          "internalType": "string",
          "name": "gaugeType",
          "type": "string"
        },
        {
          "internalType": "uint256",
          "name": "index",
          "type": "uint256"
        }
      ],
      "name": "getGaugeAtIndex",
      "outputs": [
        {
          "internalType": "contract IStakelessGauge",
          "name": "",
          "type": "address"
        }
      ],
      "stateMutability": "view",
      "type": "function"
    },
    {
      "inputs": [],
      "name": "getGaugeTypes",
      "outputs": [
        {
          "internalType": "string[]",
          "name": "",
          "type": "string[]"
        }
      ],
      "stateMutability": "view",
      "type": "function"
    },
    {
      "inputs": [
        {
          "internalType": "string[]",
          "name": "gaugeTypes",
          "type": "string[]"
        },
        {
          "internalType": "uint256",
          "name": "minRelativeWeight",
          "type": "uint256"
        }
      ],
      "name": "getGaugeTypesBridgeCost",
      "outputs": [
        {
          "internalType": "uint256",
          "name": "",
          "type": "uint256"
        }
      ],
      "stateMutability": "view",
      "type": "function"
    },
    {
      "inputs": [],
      "name": "getRoundedDownBlockTimestamp",
      "outputs": [
        {
          "internalType": "uint256",
          "name": "",
          "type": "uint256"
        }
      ],
      "stateMutability": "view",
      "type": "function"
    },
    {
      "inputs": [
        {
          "internalType": "string",
          "name": "gaugeType",
          "type": "string"
        },
        {
          "internalType": "contract IStakelessGauge",
          "name": "gauge",
          "type": "address"
        }
      ],
      "name": "getSingleBridgeCost",
      "outputs": [
        {
          "internalType": "uint256",
          "name": "",
          "type": "uint256"
        }
      ],
      "stateMutability": "view",
      "type": "function"
    },
    {
      "inputs": [
        {
          "internalType": "uint256",
          "name": "minRelativeWeight",
          "type": "uint256"
        }
      ],
      "name": "getTotalBridgeCost",
      "outputs": [
        {
          "internalType": "uint256",
          "name": "",
          "type": "uint256"
        }
      ],
      "stateMutability": "view",
      "type": "function"
    },
    {
      "inputs": [
        {
          "internalType": "string",
          "name": "gaugeType",
          "type": "string"
        }
      ],
      "name": "getTotalGauges",
      "outputs": [
        {
          "internalType": "uint256",
          "name": "",
          "type": "uint256"
        }
      ],
      "stateMutability": "view",
      "type": "function"
    },
    {
      "inputs": [],
      "name": "getVault",
      "outputs": [
        {
          "internalType": "contract IVault",
          "name": "",
          "type": "address"
        }
      ],
      "stateMutability": "view",
      "type": "function"
    },
    {
      "inputs": [
        {
          "internalType": "string",
          "name": "gaugeType",
          "type": "string"
        },
        {
          "internalType": "contract IStakelessGauge",
          "name": "gauge",
          "type": "address"
        }
      ],
      "name": "hasGauge",
      "outputs": [
        {
          "internalType": "bool",
          "name": "",
          "type": "bool"
        }
      ],
      "stateMutability": "view",
      "type": "function"
    },
    {
      "inputs": [
        {
          "internalType": "string",
          "name": "gaugeType",
          "type": "string"
        }
      ],
      "name": "isValidGaugeType",
      "outputs": [
        {
          "internalType": "bool",
          "name": "",
          "type": "bool"
        }
      ],
      "stateMutability": "view",
      "type": "function"
    },
    {
      "inputs": [
        {
          "internalType": "string",
          "name": "gaugeType",
          "type": "string"
        },
        {
          "internalType": "contract IStakelessGauge[]",
          "name": "gauges",
          "type": "address[]"
        }
      ],
      "name": "removeGauges",
      "outputs": [],
      "stateMutability": "nonpayable",
      "type": "function"
    }
  ],
  "bytecode": "0x6101206040523480156200001257600080fd5b50604051620030ca380380620030ca83398101604081905262000035916200016c565b806001600160a01b0316638d928af86040518163ffffffff1660e01b815260040160206040518083038186803b1580156200006f57600080fd5b505afa15801562000084573d6000803e3d6000fd5b505050506040513d601f19601f82011682018060405250810190620000aa9190620001aa565b6001600055306080526001600160601b0319606091821b811660a05283821b811660e0529082901b1660c05260408051632c6f4d6f60e11b815290516001600160a01b038416916358de9ade916004808301926020929190829003018186803b1580156200011757600080fd5b505afa1580156200012c573d6000803e3d6000fd5b505050506040513d601f19601f82011682018060405250810190620001529190620001aa565b60601b6001600160601b0319166101005250620001e99050565b600080604083850312156200017f578182fd5b82516200018c81620001d0565b60208401519092506200019f81620001d0565b809150509250929050565b600060208284031215620001bc578081fd5b8151620001c981620001d0565b9392505050565b6001600160a01b0381168114620001e657600080fd5b50565b60805160a05160601c60c05160601c60e05160601c6101005160601c612e3b6200028f600039806117915280611b795280611c6b5280611e3f5280611f295280611fd052508061041652806104a8528061072a52806108525280610a7c5280610af55280610c425280610d4d5280610ec15280610f665280611091528061118c52806119375250806113e052806122df525080610c09525080610bb95250612e3b6000f3fe60806040526004361061016a5760003560e01c80637d0a6616116100cb578063a9a7f87e1161007f578063c91be04311610059578063c91be04314610376578063d8dba2ce14610396578063f7178b88146103b65761016a565b8063a9a7f87e1461031f578063aaabadc51461033f578063afcb1a86146103545761016a565b8063851c1bb3116100b0578063851c1bb3146102d75780638d928af8146102f7578063975104961461030c5761016a565b80637d0a6616146102b1578063804d17dc146102c45761016a565b806346583adf116101225780634db34d2a116101075780634db34d2a1461025c57806373ebd0601461027c5780637c1fef511461029c5761016a565b806346583adf146102345780634a3a1e11146102495761016a565b806327f791071161015357806327f79107146101d25780632adbe5ac146101ff578063435903081461021f5761016a565b806316e772bc1461016f57806327cb2a3b146101a5575b600080fd5b34801561017b57600080fd5b5061018f61018a366004612726565b6103d6565b60405161019c9190612a4c565b60405180910390f35b3480156101b157600080fd5b506101c56101c0366004612871565b6104a3565b60405161019c9190612950565b3480156101de57600080fd5b506101f26101ed3660046128a5565b6105a7565b60405161019c9190612a57565b34801561020b57600080fd5b506101f261021a366004612821565b6105c6565b61023261022d3660046127ec565b610602565b005b34801561024057600080fd5b506101f261068a565b6102326102573660046125b7565b610699565b34801561026857600080fd5b506101f2610277366004612726565b610725565b34801561028857600080fd5b50610232610297366004612759565b610813565b3480156102a857600080fd5b506101c5610a7a565b6102326102bf366004612821565b610a9e565b6102326102d23660046128a5565b610ae9565b3480156102e357600080fd5b506101f26102f236600461267b565b610bb5565b34801561030357600080fd5b506101c5610c07565b61023261031a366004612618565b610c2b565b34801561032b57600080fd5b506101f261033a366004612618565b610d3c565b34801561034b57600080fd5b506101c5610e36565b34801561036057600080fd5b50610369610ebd565b60405161019c91906129ce565b34801561038257600080fd5b5061018f610391366004612821565b610f61565b3480156103a257600080fd5b506102326103b1366004612759565b611052565b3480156103c257600080fd5b506102326103d1366004612759565b61114d565b6040517f16e772bc00000000000000000000000000000000000000000000000000000000815260009073ffffffffffffffffffffffffffffffffffffffff7f000000000000000000000000000000000000000000000000000000000000000016906316e772bc9061044b908590600401612a8c565b60206040518083038186803b15801561046357600080fd5b505afa158015610477573d6000803e3d6000fd5b505050506040513d601f19601f8201168201806040525081019061049b919061265b565b90505b919050565b6000827f000000000000000000000000000000000000000000000000000000000000000073ffffffffffffffffffffffffffffffffffffffff166316e772bc826040518263ffffffff1660e01b81526004016104ff9190612a8c565b60206040518083038186803b15801561051757600080fd5b505afa15801561052b573d6000803e3d6000fd5b505050506040513d601f19601f8201168201806040525081019061054f919061265b565b6105745760405162461bcd60e51b815260040161056b90612c81565b60405180910390fd5b61059d836001866040516105889190612931565b9081526040519081900360200190209061123a565b91505b5092915050565b600060606105b3610ebd565b90506105bf818461125f565b9392505050565b600082826105d48282610f61565b6105f05760405162461bcd60e51b815260040161056b90612c4a565b6105f98461129b565b95945050505050565b61060a611326565b805160005b81811015610674576106348484838151811061062757fe5b6020026020010151610f61565b6106505760405162461bcd60e51b815260040161056b90612c4a565b61066c83828151811061065f57fe5b602002602001015161133f565b60010161060f565b505061067e611470565b610686611481565b5050565b6000610694611488565b905090565b6106a1611326565b80518251146106c25760405162461bcd60e51b815260040161056b90612afc565b805160005b81811015610674576106f28482815181106106de57fe5b602002602001015184838151811061062757fe5b61070e5760405162461bcd60e51b815260040161056b90612c4a565b61071d83828151811061065f57fe5b6001016106c7565b6000817f000000000000000000000000000000000000000000000000000000000000000073ffffffffffffffffffffffffffffffffffffffff166316e772bc826040518263ffffffff1660e01b81526004016107819190612a8c565b60206040518083038186803b15801561079957600080fd5b505afa1580156107ad573d6000803e3d6000fd5b505050506040513d601f19601f820116820180604052508101906107d1919061265b565b6107ed5760405162461bcd60e51b815260040161056b90612c81565b6105bf6001846040516108009190612931565b908152602001604051809103902061149d565b6040517f16e772bc000000000000000000000000000000000000000000000000000000008152839073ffffffffffffffffffffffffffffffffffffffff7f000000000000000000000000000000000000000000000000000000000000000016906316e772bc90610887908490600401612a8c565b60206040518083038186803b15801561089f57600080fd5b505afa1580156108b3573d6000803e3d6000fd5b505050506040513d601f19601f820116820180604052508101906108d7919061265b565b6108f35760405162461bcd60e51b815260040161056b90612c81565b60006001856040516109059190612931565b9081526020016040518091039020905060005b83811015610a7257600085858381811061092e57fe5b9050602002016020810190610943919061270a565b90508073ffffffffffffffffffffffffffffffffffffffff16639c868ac06040518163ffffffff1660e01b815260040160206040518083038186803b15801561098b57600080fd5b505afa15801561099f573d6000803e3d6000fd5b505050506040513d601f19601f820116820180604052508101906109c3919061265b565b6109df5760405162461bcd60e51b815260040161056b90612cb8565b6109e983826114a1565b610a055760405162461bcd60e51b815260040161056b90612bb6565b86604051610a139190612931565b60405180910390208173ffffffffffffffffffffffffffffffffffffffff167fb87757e0365ca4f80cc1f429f422c0ea7ec26bbd3e5778727e77c809462aad0289604051610a619190612a8c565b60405180910390a350600101610918565b505050505050565b7f000000000000000000000000000000000000000000000000000000000000000090565b610aa6611326565b8181610ab28282610f61565b610ace5760405162461bcd60e51b815260040161056b90612c4a565b610ad78361133f565b610adf611470565b5050610686611481565b610af1611326565b60607f000000000000000000000000000000000000000000000000000000000000000073ffffffffffffffffffffffffffffffffffffffff1663afcb1a866040518163ffffffff1660e01b815260040160006040518083038186803b158015610b5957600080fd5b505afa158015610b6d573d6000803e3d6000fd5b505050506040513d6000823e601f3d908101601f19168201604052610b95919081019061252e565b9050610ba1818361164f565b50610baa611470565b610bb2611481565b50565b60007f000000000000000000000000000000000000000000000000000000000000000082604051602001610bea929190612901565b604051602081830303815290604052805190602001209050919050565b7f000000000000000000000000000000000000000000000000000000000000000090565b610c33611326565b8160005b8151811015610d20577f000000000000000000000000000000000000000000000000000000000000000073ffffffffffffffffffffffffffffffffffffffff166316e772bc838381518110610c8857fe5b60200260200101516040518263ffffffff1660e01b8152600401610cac9190612a8c565b60206040518083038186803b158015610cc457600080fd5b505afa158015610cd8573d6000803e3d6000fd5b505050506040513d601f19601f82011682018060405250810190610cfc919061265b565b610d185760405162461bcd60e51b815260040161056b90612c81565b600101610c37565b50610d2b838361164f565b610d33611470565b50610686611481565b60008260005b8151811015610e2b577f000000000000000000000000000000000000000000000000000000000000000073ffffffffffffffffffffffffffffffffffffffff166316e772bc838381518110610d9357fe5b60200260200101516040518263ffffffff1660e01b8152600401610db79190612a8c565b60206040518083038186803b158015610dcf57600080fd5b505afa158015610de3573d6000803e3d6000fd5b505050506040513d601f19601f82011682018060405250810190610e07919061265b565b610e235760405162461bcd60e51b815260040161056b90612c81565b600101610d42565b5061059d848461125f565b6000610e40610c07565b73ffffffffffffffffffffffffffffffffffffffff1663aaabadc56040518163ffffffff1660e01b815260040160206040518083038186803b158015610e8557600080fd5b505afa158015610e99573d6000803e3d6000fd5b505050506040513d601f19601f8201168201806040525081019061069491906126ee565b60607f000000000000000000000000000000000000000000000000000000000000000073ffffffffffffffffffffffffffffffffffffffff1663afcb1a866040518163ffffffff1660e01b815260040160006040518083038186803b158015610f2557600080fd5b505afa158015610f39573d6000803e3d6000fd5b505050506040513d6000823e601f3d908101601f19168201604052610694919081019061252e565b6000827f000000000000000000000000000000000000000000000000000000000000000073ffffffffffffffffffffffffffffffffffffffff166316e772bc826040518263ffffffff1660e01b8152600401610fbd9190612a8c565b60206040518083038186803b158015610fd557600080fd5b505afa158015610fe9573d6000803e3d6000fd5b505050506040513d601f19601f8201168201806040525081019061100d919061265b565b6110295760405162461bcd60e51b815260040161056b90612c81565b61059d8360018660405161103d9190612931565b9081526040519081900360200190209061168d565b6040517f16e772bc000000000000000000000000000000000000000000000000000000008152839073ffffffffffffffffffffffffffffffffffffffff7f000000000000000000000000000000000000000000000000000000000000000016906316e772bc906110c6908490600401612a8c565b60206040518083038186803b1580156110de57600080fd5b505afa1580156110f2573d6000803e3d6000fd5b505050506040513d601f19601f82011682018060405250810190611116919061265b565b6111325760405162461bcd60e51b815260040161056b90612c81565b61113a6116bb565b6111478484846001611701565b50505050565b6040517f16e772bc000000000000000000000000000000000000000000000000000000008152839073ffffffffffffffffffffffffffffffffffffffff7f000000000000000000000000000000000000000000000000000000000000000016906316e772bc906111c1908490600401612a8c565b60206040518083038186803b1580156111d957600080fd5b505afa1580156111ed573d6000803e3d6000fd5b505050506040513d601f19601f82011682018060405250810190611211919061265b565b61122d5760405162461bcd60e51b815260040161056b90612c81565b6111478484846000611701565b815460009061124c9083106064611acd565b6112568383611adb565b90505b92915050565b6000805b83518110156105a057606084828151811061127a57fe5b6020026020010151905061128e8185611b15565b9092019150600101611263565b60008173ffffffffffffffffffffffffffffffffffffffff1663b02452256040518163ffffffff1660e01b815260040160206040518083038186803b1580156112e357600080fd5b505afa925050508015611313575060408051601f3d908101601f19168201909252611310918101906128bd565b60015b61131f5750600061049e565b905061049e565b61133860026000541415610190611acd565b6002600055565b600061134a8261129b565b6040805160048082526024820183526020820180517bffffffffffffffffffffffffffffffffffffffffffffffffffffffff167fc2c4c5c10000000000000000000000000000000000000000000000000000000017905291517f4036176a00000000000000000000000000000000000000000000000000000000815292935073ffffffffffffffffffffffffffffffffffffffff7f00000000000000000000000000000000000000000000000000000000000000001692634036176a92859261141592889201612971565b6000604051808303818588803b15801561142e57600080fd5b505af1158015611442573d6000803e3d6000fd5b50505050506040513d6000823e601f3d908101601f1916820160405261146b91908101906126bb565b505050565b478015610bb257610bb23382611d34565b6001600055565b6000600162093a8042040362093a8002905090565b5490565b73ffffffffffffffffffffffffffffffffffffffff8116600090815260018301602052604081205480156116455783547fffffffffffffffffffffffffffffffffffffffffffffffffffffffffffffffff80830191018082146115aa57600086600001828154811061150f57fe5b600091825260209091200154875473ffffffffffffffffffffffffffffffffffffffff9091169150819088908590811061154557fe5b600091825260208083209190910180547fffffffffffffffffffffffff00000000000000000000000000000000000000001673ffffffffffffffffffffffffffffffffffffffff94851617905592909116815260018881019092526040902090830190555b85548690806115b557fe5b6000828152602080822083017fffffffffffffffffffffffffffffffffffffffffffffffffffffffffffffffff90810180547fffffffffffffffffffffffff000000000000000000000000000000000000000016905590920190925573ffffffffffffffffffffffffffffffffffffffff8716825260018881019091526040822091909155935061125992505050565b6000915050611259565b6000611659611488565b905060005b83518110156111475761168584828151811061167657fe5b60200260200101518484611dbb565b60010161165e565b73ffffffffffffffffffffffffffffffffffffffff1660009081526001919091016020526040902054151590565b60006116ea6000357fffffffff0000000000000000000000000000000000000000000000000000000016610bb5565b9050610bb26116f98233612084565b610191611acd565b60006001856040516117139190612931565b9081526020016040518091039020905060005b83811015610a7257600085858381811061173c57fe5b9050602002016020810190611751919061270a565b6040517f61df1bf900000000000000000000000000000000000000000000000000000000815290915073ffffffffffffffffffffffffffffffffffffffff7f000000000000000000000000000000000000000000000000000000000000000016906361df1bf9906117c6908490600401612950565b60206040518083038186803b1580156117de57600080fd5b505afa1580156117f2573d6000803e3d6000fd5b505050506040513d601f19601f82011682018060405250810190611816919061265b565b6118325760405162461bcd60e51b815260040161056b90612a9f565b8073ffffffffffffffffffffffffffffffffffffffff16639c868ac06040518163ffffffff1660e01b815260040160206040518083038186803b15801561187857600080fd5b505afa15801561188c573d6000803e3d6000fd5b505050506040513d601f19601f820116820180604052508101906118b0919061265b565b156118cd5760405162461bcd60e51b815260040161056b90612c13565b6118d7838261211a565b6118f35760405162461bcd60e51b815260040161056b90612cef565b8380611a4457506040517f572cb6a500000000000000000000000000000000000000000000000000000000815273ffffffffffffffffffffffffffffffffffffffff7f0000000000000000000000000000000000000000000000000000000000000000169063572cb6a59061196c908a90600401612a8c565b60206040518083038186803b15801561198457600080fd5b505afa158015611998573d6000803e3d6000fd5b505050506040513d601f19601f820116820180604052508101906119bc91906126ee565b73ffffffffffffffffffffffffffffffffffffffff1663ce3cc8bd826040518263ffffffff1660e01b81526004016119f49190612950565b60206040518083038186803b158015611a0c57600080fd5b505afa158015611a20573d6000803e3d6000fd5b505050506040513d601f19601f82011682018060405250810190611a44919061265b565b611a605760405162461bcd60e51b815260040161056b90612b59565b86604051611a6e9190612931565b60405180910390208173ffffffffffffffffffffffffffffffffffffffff167fbd3a33b3738a69bcfb84219d93fb0b1b2d91efbf2e5bef206c9af4122290fb5489604051611abc9190612a8c565b60405180910390a350600101611726565b8161068657610686816121a2565b6000826000018281548110611aec57fe5b60009182526020909120015473ffffffffffffffffffffffffffffffffffffffff169392505050565b600080611b20611488565b90506000611b376001866040516108009190612931565b90506000600186604051611b4b9190612931565b9081526020016040518091039020905060005b82811015611d2a576000611b728383611adb565b90506000857f000000000000000000000000000000000000000000000000000000000000000073ffffffffffffffffffffffffffffffffffffffff1663a4d7a250846040518263ffffffff1660e01b8152600401611bd09190612950565b60206040518083038186803b158015611be857600080fd5b505afa158015611bfc573d6000803e3d6000fd5b505050506040513d601f19601f82011682018060405250810190611c2091906128bd565b10159050808015611cf457506040517fd3078c94000000000000000000000000000000000000000000000000000000008152889073ffffffffffffffffffffffffffffffffffffffff7f0000000000000000000000000000000000000000000000000000000000000000169063d3078c9490611ca29086908b906004016129a8565b60206040518083038186803b158015611cba57600080fd5b505afa158015611cce573d6000803e3d6000fd5b505050506040513d601f19601f82011682018060405250810190611cf291906128bd565b105b15611d00575050611d22565b6000611d0b8361129b565b905080611d1a57505050611d2a565b969096019550505b600101611b5e565b5050505092915050565b611d43814710156101a3611acd565b60008273ffffffffffffffffffffffffffffffffffffffff1682604051611d699061294d565b60006040518083038185875af1925050503d8060008114611da6576040519150601f19603f3d011682016040523d82523d6000602084013e611dab565b606091505b5050905061146b816101a4611acd565b6000600184604051611dcd9190612931565b908152602001604051809103902090506000611de88261149d565b905080611df657505061146b565b6000611e0a611e058483611adb565b61129b565b1590506123c981611e1d576121cc611e21565b61224c5b905060005b8381101561207a576000611e3a8683611adb565b9050867f000000000000000000000000000000000000000000000000000000000000000073ffffffffffffffffffffffffffffffffffffffff1663a4d7a250836040518263ffffffff1660e01b8152600401611e969190612950565b60206040518083038186803b158015611eae57600080fd5b505afa158015611ec2573d6000803e3d6000fd5b505050506040513d601f19601f82011682018060405250810190611ee691906128bd565b1015611f91576040517f615e523700000000000000000000000000000000000000000000000000000000815273ffffffffffffffffffffffffffffffffffffffff7f0000000000000000000000000000000000000000000000000000000000000000169063615e523790611f5e908490600401612950565b600060405180830381600087803b158015611f7857600080fd5b505af1158015611f8c573d6000803e3d6000fd5b505050505b6040517fd3078c94000000000000000000000000000000000000000000000000000000008152889073ffffffffffffffffffffffffffffffffffffffff7f0000000000000000000000000000000000000000000000000000000000000000169063d3078c94906120079085908c906004016129a8565b60206040518083038186803b15801561201f57600080fd5b505afa158015612033573d6000803e3d6000fd5b505050506040513d601f19601f8201168201806040525081019061205791906128bd565b10156120635750612072565b612070818463ffffffff16565b505b600101611e26565b5050505050505050565b600061208e610e36565b73ffffffffffffffffffffffffffffffffffffffff16639be2a8848484306040518463ffffffff1660e01b81526004016120ca93929190612a60565b60206040518083038186803b1580156120e257600080fd5b505afa1580156120f6573d6000803e3d6000fd5b505050506040513d601f19601f82011682018060405250810190611256919061265b565b6000612126838361168d565b61219a57508154600180820184556000848152602080822090930180547fffffffffffffffffffffffff00000000000000000000000000000000000000001673ffffffffffffffffffffffffffffffffffffffff861690811790915585549082528286019093526040902091909155611259565b506000611259565b610bb2817f42414c0000000000000000000000000000000000000000000000000000000000612368565b60008173ffffffffffffffffffffffffffffffffffffffff1663b02452256040518163ffffffff1660e01b815260040160206040518083038186803b15801561221457600080fd5b505afa158015612228573d6000803e3d6000fd5b505050506040513d601f19601f8201168201806040525081019061134a91906128bd565b6040805160048082526024820183526020820180517bffffffffffffffffffffffffffffffffffffffffffffffffffffffff167fc2c4c5c10000000000000000000000000000000000000000000000000000000017905291517f4036176a00000000000000000000000000000000000000000000000000000000815273ffffffffffffffffffffffffffffffffffffffff7f00000000000000000000000000000000000000000000000000000000000000001692634036176a9261231292869201612971565b600060405180830381600087803b15801561232c57600080fd5b505af1158015612340573d6000803e3d6000fd5b505050506040513d6000823e601f3d908101601f1916820160405261068691908101906126bb565b62461bcd60e51b600090815260206004526007602452600a808404818106603090810160081b958390069590950190829004918206850160101b01602363ffffff0060e086901c160160181b0190930160c81b60445260e882901c90606490fd5bfe5b600082601f8301126123db578081fd5b81356123ee6123e982612d73565b612d4c565b81815291506020808301908481018184028601820187101561240f57600080fd5b60005b8481101561243757813561242581612de3565b84529282019290820190600101612412565b505050505092915050565b600082601f830112612452578081fd5b81356124606123e982612d73565b818152915060208083019084810160005b8481101561243757612488888484358a01016124e0565b84529282019290820190600101612471565b600082601f8301126124aa578081fd5b81516124b86123e982612d93565b91508082528360208285010111156124cf57600080fd5b6105a0816020840160208601612db7565b600082601f8301126124f0578081fd5b81356124fe6123e982612d93565b915080825283602082850101111561251557600080fd5b8060208401602084013760009082016020015292915050565b60006020808385031215612540578182fd5b825167ffffffffffffffff811115612556578283fd5b8301601f81018513612566578283fd5b80516125746123e982612d73565b81815283810190838501865b848110156125a9576125978a88845189010161249a565b84529286019290860190600101612580565b509098975050505050505050565b600080604083850312156125c9578081fd5b823567ffffffffffffffff808211156125e0578283fd5b6125ec86838701612442565b93506020850135915080821115612601578283fd5b5061260e858286016123cb565b9150509250929050565b6000806040838503121561262a578182fd5b823567ffffffffffffffff811115612640578283fd5b61264c85828601612442565b95602094909401359450505050565b60006020828403121561266c578081fd5b815180151581146105bf578182fd5b60006020828403121561268c578081fd5b81357fffffffff00000000000000000000000000000000000000000000000000000000811681146105bf578182fd5b6000602082840312156126cc578081fd5b815167ffffffffffffffff8111156126e2578182fd5b61059d8482850161249a565b6000602082840312156126ff578081fd5b81516105bf81612de3565b60006020828403121561271b578081fd5b81356105bf81612de3565b600060208284031215612737578081fd5b813567ffffffffffffffff81111561274d578182fd5b61059d848285016124e0565b60008060006040848603121561276d578081fd5b833567ffffffffffffffff80821115612784578283fd5b612790878388016124e0565b945060208601359150808211156127a5578283fd5b818601915086601f8301126127b8578283fd5b8135818111156127c6578384fd5b87602080830285010111156127d9578384fd5b6020830194508093505050509250925092565b600080604083850312156127fe578182fd5b823567ffffffffffffffff80821115612815578384fd5b6125ec868387016124e0565b60008060408385031215612833578182fd5b823567ffffffffffffffff811115612849578283fd5b612855858286016124e0565b925050602083013561286681612de3565b809150509250929050565b60008060408385031215612883578182fd5b823567ffffffffffffffff811115612899578283fd5b61264c858286016124e0565b6000602082840312156128b6578081fd5b5035919050565b6000602082840312156128ce578081fd5b5051919050565b600081518084526128ed816020860160208601612db7565b601f01601f19169290920160200192915050565b9182527fffffffff0000000000000000000000000000000000000000000000000000000016602082015260240190565b60008251612943818460208701612db7565b9190910192915050565b90565b73ffffffffffffffffffffffffffffffffffffffff91909116815260200190565b600073ffffffffffffffffffffffffffffffffffffffff84168252604060208301526129a060408301846128d5565b949350505050565b73ffffffffffffffffffffffffffffffffffffffff929092168252602082015260400190565b6000602080830181845280855180835260408601915060408482028701019250838701855b82811015612a3f577fffffffffffffffffffffffffffffffffffffffffffffffffffffffffffffffc0888603018452612a2d8583516128d5565b945092850192908501906001016129f3565b5092979650505050505050565b901515815260200190565b90815260200190565b92835273ffffffffffffffffffffffffffffffffffffffff918216602084015216604082015260600190565b60006020825261125660208301846128d5565b6020808252602a908201527f476175676520776173206e6f7420616464656420746f2074686520476175676560408201527f436f6e74726f6c6c657200000000000000000000000000000000000000000000606082015260800190565b6020808252602a908201527f4d69736d61746368206265747765656e20676175676520747970657320616e6460408201527f2061646472657373657300000000000000000000000000000000000000000000606082015260800190565b6020808252602e908201527f476175676520646f6573206e6f7420636f72726573706f6e6420746f2074686560408201527f2073656c65637465642074797065000000000000000000000000000000000000606082015260800190565b60208082526027908201527f476175676520776173206e6f7420616464656420746f2074686520636865636b60408201527f706f696e74657200000000000000000000000000000000000000000000000000606082015260800190565b60208082526010908201527f476175676520776173206b696c6c656400000000000000000000000000000000604082015260600190565b6020808252600f908201527f4761756765206e6f742061646465640000000000000000000000000000000000604082015260600190565b60208082526012908201527f496e76616c696420676175676520747970650000000000000000000000000000604082015260600190565b60208082526014908201527f476175676520776173206e6f74206b696c6c6564000000000000000000000000604082015260600190565b60208082526027908201527f476175676520616c726561647920616464656420746f2074686520636865636b60408201527f706f696e74657200000000000000000000000000000000000000000000000000606082015260800190565b60405181810167ffffffffffffffff81118282101715612d6b57600080fd5b604052919050565b600067ffffffffffffffff821115612d89578081fd5b5060209081020190565b600067ffffffffffffffff821115612da9578081fd5b50601f01601f191660200190565b60005b83811015612dd2578181015183820152602001612dba565b838111156111475750506000910152565b73ffffffffffffffffffffffffffffffffffffffff81168114610bb257600080fdfea2646970667358221220ad96561ddd7ce6b409b5587999c89b40f38d1074f98055464efae03c87603b7564736f6c63430007010033",
  "linkReferences": {},
  "deployedLinkReferences": {}
}